{
  "_format": "hh-sol-artifact-1",
  "contractName": "FastHypERC20",
  "sourceName": "contracts/FastHypERC20.sol",
  "abi": [
    {
      "inputs": [
        {
          "internalType": "uint8",
          "name": "__decimals",
          "type": "uint8"
        }
      ],
      "stateMutability": "nonpayable",
      "type": "constructor"
    },
    {
      "anonymous": false,
      "inputs": [
        {
          "indexed": true,
          "internalType": "address",
          "name": "owner",
          "type": "address"
        },
        {
          "indexed": true,
          "internalType": "address",
          "name": "spender",
          "type": "address"
        },
        {
          "indexed": false,
          "internalType": "uint256",
          "name": "value",
          "type": "uint256"
        }
      ],
      "name": "Approval",
      "type": "event"
    },
    {
      "anonymous": false,
      "inputs": [
        {
          "indexed": true,
          "internalType": "uint32",
          "name": "domain",
          "type": "uint32"
        },
        {
          "indexed": false,
          "internalType": "uint256",
          "name": "gas",
          "type": "uint256"
        }
      ],
      "name": "DestinationGasSet",
      "type": "event"
    },
    {
      "anonymous": false,
      "inputs": [
        {
          "indexed": false,
          "internalType": "uint8",
          "name": "version",
          "type": "uint8"
        }
      ],
      "name": "Initialized",
      "type": "event"
    },
    {
      "anonymous": false,
      "inputs": [
        {
          "indexed": true,
          "internalType": "address",
          "name": "interchainGasPaymaster",
          "type": "address"
        }
      ],
      "name": "InterchainGasPaymasterSet",
      "type": "event"
    },
    {
      "anonymous": false,
      "inputs": [
        {
          "indexed": true,
          "internalType": "address",
          "name": "module",
          "type": "address"
        }
      ],
      "name": "InterchainSecurityModuleSet",
      "type": "event"
    },
    {
      "anonymous": false,
      "inputs": [
        {
          "indexed": true,
          "internalType": "address",
          "name": "mailbox",
          "type": "address"
        }
      ],
      "name": "MailboxSet",
      "type": "event"
    },
    {
      "anonymous": false,
      "inputs": [
        {
          "indexed": true,
          "internalType": "address",
          "name": "previousOwner",
          "type": "address"
        },
        {
          "indexed": true,
          "internalType": "address",
          "name": "newOwner",
          "type": "address"
        }
      ],
      "name": "OwnershipTransferred",
      "type": "event"
    },
    {
      "anonymous": false,
      "inputs": [
        {
          "indexed": true,
          "internalType": "uint32",
          "name": "origin",
          "type": "uint32"
        },
        {
          "indexed": true,
          "internalType": "bytes32",
          "name": "recipient",
          "type": "bytes32"
        },
        {
          "indexed": false,
          "internalType": "uint256",
          "name": "amount",
          "type": "uint256"
        }
      ],
      "name": "ReceivedTransferRemote",
      "type": "event"
    },
    {
      "anonymous": false,
      "inputs": [
        {
          "indexed": true,
          "internalType": "uint32",
          "name": "domain",
          "type": "uint32"
        },
        {
          "indexed": false,
          "internalType": "bytes32",
          "name": "router",
          "type": "bytes32"
        }
      ],
      "name": "RemoteRouterEnrolled",
      "type": "event"
    },
    {
      "anonymous": false,
      "inputs": [
        {
          "indexed": true,
          "internalType": "uint32",
          "name": "destination",
          "type": "uint32"
        },
        {
          "indexed": true,
          "internalType": "bytes32",
          "name": "recipient",
          "type": "bytes32"
        },
        {
          "indexed": false,
          "internalType": "uint256",
          "name": "amount",
          "type": "uint256"
        }
      ],
      "name": "SentTransferRemote",
      "type": "event"
    },
    {
      "anonymous": false,
      "inputs": [
        {
          "indexed": true,
          "internalType": "address",
          "name": "from",
          "type": "address"
        },
        {
          "indexed": true,
          "internalType": "address",
          "name": "to",
          "type": "address"
        },
        {
          "indexed": false,
          "internalType": "uint256",
          "name": "value",
          "type": "uint256"
        }
      ],
      "name": "Transfer",
      "type": "event"
    },
    {
      "inputs": [
        {
          "internalType": "address",
          "name": "owner",
          "type": "address"
        },
        {
          "internalType": "address",
          "name": "spender",
          "type": "address"
        }
      ],
      "name": "allowance",
      "outputs": [
        {
          "internalType": "uint256",
          "name": "",
          "type": "uint256"
        }
      ],
      "stateMutability": "view",
      "type": "function"
    },
    {
      "inputs": [
        {
          "internalType": "address",
          "name": "spender",
          "type": "address"
        },
        {
          "internalType": "uint256",
          "name": "amount",
          "type": "uint256"
        }
      ],
      "name": "approve",
      "outputs": [
        {
          "internalType": "bool",
          "name": "",
          "type": "bool"
        }
      ],
      "stateMutability": "nonpayable",
      "type": "function"
    },
    {
      "inputs": [
        {
          "internalType": "address",
          "name": "account",
          "type": "address"
        }
      ],
      "name": "balanceOf",
      "outputs": [
        {
          "internalType": "uint256",
          "name": "",
          "type": "uint256"
        }
      ],
      "stateMutability": "view",
      "type": "function"
    },
    {
      "inputs": [],
      "name": "decimals",
      "outputs": [
        {
          "internalType": "uint8",
          "name": "",
          "type": "uint8"
        }
      ],
      "stateMutability": "view",
      "type": "function"
    },
    {
      "inputs": [
        {
          "internalType": "address",
          "name": "spender",
          "type": "address"
        },
        {
          "internalType": "uint256",
          "name": "subtractedValue",
          "type": "uint256"
        }
      ],
      "name": "decreaseAllowance",
      "outputs": [
        {
          "internalType": "bool",
          "name": "",
          "type": "bool"
        }
      ],
      "stateMutability": "nonpayable",
      "type": "function"
    },
    {
      "inputs": [
        {
          "internalType": "uint32",
          "name": "",
          "type": "uint32"
        }
      ],
      "name": "destinationGas",
      "outputs": [
        {
          "internalType": "uint256",
          "name": "",
          "type": "uint256"
        }
      ],
      "stateMutability": "view",
      "type": "function"
    },
    {
      "inputs": [],
      "name": "domains",
      "outputs": [
        {
          "internalType": "uint32[]",
          "name": "",
          "type": "uint32[]"
        }
      ],
      "stateMutability": "view",
      "type": "function"
    },
    {
      "inputs": [
        {
          "internalType": "uint32",
          "name": "_domain",
          "type": "uint32"
        },
        {
          "internalType": "bytes32",
          "name": "_router",
          "type": "bytes32"
        }
      ],
      "name": "enrollRemoteRouter",
      "outputs": [],
      "stateMutability": "nonpayable",
      "type": "function"
    },
    {
      "inputs": [
        {
          "internalType": "uint32[]",
          "name": "_domains",
          "type": "uint32[]"
        },
        {
          "internalType": "bytes32[]",
          "name": "_addresses",
          "type": "bytes32[]"
        }
      ],
      "name": "enrollRemoteRouters",
      "outputs": [],
      "stateMutability": "nonpayable",
      "type": "function"
    },
    {
      "inputs": [],
      "name": "fastTransferId",
      "outputs": [
        {
          "internalType": "uint256",
          "name": "",
          "type": "uint256"
        }
      ],
      "stateMutability": "view",
      "type": "function"
    },
    {
      "inputs": [
        {
          "internalType": "uint32",
          "name": "_destination",
          "type": "uint32"
        },
        {
          "internalType": "bytes32",
          "name": "_recipient",
          "type": "bytes32"
        },
        {
          "internalType": "uint256",
          "name": "_amountOrId",
          "type": "uint256"
        },
        {
          "internalType": "uint256",
          "name": "_fastFee",
          "type": "uint256"
        }
      ],
      "name": "fastTransferRemote",
      "outputs": [
        {
          "internalType": "bytes32",
          "name": "messageId",
          "type": "bytes32"
        }
      ],
      "stateMutability": "payable",
      "type": "function"
    },
    {
      "inputs": [
        {
          "internalType": "address",
          "name": "_recipient",
          "type": "address"
        },
        {
          "internalType": "uint256",
          "name": "_amount",
          "type": "uint256"
        },
        {
          "internalType": "uint256",
          "name": "_fastFee",
          "type": "uint256"
        },
        {
          "internalType": "uint32",
          "name": "_origin",
          "type": "uint32"
        },
        {
          "internalType": "uint256",
          "name": "_fastTransferId",
          "type": "uint256"
        }
      ],
      "name": "fillFastTransfer",
      "outputs": [],
      "stateMutability": "nonpayable",
      "type": "function"
    },
    {
      "inputs": [
        {
          "internalType": "uint32",
          "name": "_origin",
          "type": "uint32"
        },
        {
          "internalType": "bytes32",
          "name": "_sender",
          "type": "bytes32"
        },
        {
          "internalType": "bytes",
          "name": "_message",
          "type": "bytes"
        }
      ],
      "name": "handle",
      "outputs": [],
      "stateMutability": "nonpayable",
      "type": "function"
    },
    {
      "inputs": [
        {
          "internalType": "address",
          "name": "spender",
          "type": "address"
        },
        {
          "internalType": "uint256",
          "name": "addedValue",
          "type": "uint256"
        }
      ],
      "name": "increaseAllowance",
      "outputs": [
        {
          "internalType": "bool",
          "name": "",
          "type": "bool"
        }
      ],
      "stateMutability": "nonpayable",
      "type": "function"
    },
    {
      "inputs": [
        {
          "internalType": "address",
          "name": "_mailbox",
          "type": "address"
        },
        {
          "internalType": "address",
          "name": "_interchainGasPaymaster",
          "type": "address"
        },
        {
          "internalType": "uint256",
          "name": "_totalSupply",
          "type": "uint256"
        },
        {
          "internalType": "string",
          "name": "_name",
          "type": "string"
        },
        {
          "internalType": "string",
          "name": "_symbol",
          "type": "string"
        }
      ],
      "name": "initialize",
      "outputs": [],
      "stateMutability": "nonpayable",
      "type": "function"
    },
    {
      "inputs": [],
      "name": "interchainGasPaymaster",
      "outputs": [
        {
          "internalType": "contract IInterchainGasPaymaster",
          "name": "",
          "type": "address"
        }
      ],
      "stateMutability": "view",
      "type": "function"
    },
    {
      "inputs": [],
      "name": "interchainSecurityModule",
      "outputs": [
        {
          "internalType": "contract IInterchainSecurityModule",
          "name": "",
          "type": "address"
        }
      ],
      "stateMutability": "view",
      "type": "function"
    },
    {
      "inputs": [],
      "name": "mailbox",
      "outputs": [
        {
          "internalType": "contract IMailbox",
          "name": "",
          "type": "address"
        }
      ],
      "stateMutability": "view",
      "type": "function"
    },
    {
      "inputs": [],
      "name": "name",
      "outputs": [
        {
          "internalType": "string",
          "name": "",
          "type": "string"
        }
      ],
      "stateMutability": "view",
      "type": "function"
    },
    {
      "inputs": [],
      "name": "owner",
      "outputs": [
        {
          "internalType": "address",
          "name": "",
          "type": "address"
        }
      ],
      "stateMutability": "view",
      "type": "function"
    },
    {
      "inputs": [
        {
          "internalType": "uint32",
          "name": "_destinationDomain",
          "type": "uint32"
        }
      ],
      "name": "quoteGasPayment",
      "outputs": [
        {
          "internalType": "uint256",
          "name": "_gasPayment",
          "type": "uint256"
        }
      ],
      "stateMutability": "view",
      "type": "function"
    },
    {
      "inputs": [],
      "name": "renounceOwnership",
      "outputs": [],
      "stateMutability": "nonpayable",
      "type": "function"
    },
    {
      "inputs": [
        {
          "internalType": "uint32",
          "name": "_domain",
          "type": "uint32"
        }
      ],
      "name": "routers",
      "outputs": [
        {
          "internalType": "bytes32",
          "name": "",
          "type": "bytes32"
        }
      ],
      "stateMutability": "view",
      "type": "function"
    },
    {
      "inputs": [
        {
          "components": [
            {
              "internalType": "uint32",
              "name": "domain",
              "type": "uint32"
            },
            {
              "internalType": "uint256",
              "name": "gas",
              "type": "uint256"
            }
          ],
          "internalType": "struct GasRouter.GasRouterConfig[]",
          "name": "gasConfigs",
          "type": "tuple[]"
        }
      ],
      "name": "setDestinationGas",
      "outputs": [],
      "stateMutability": "nonpayable",
      "type": "function"
    },
    {
      "inputs": [
        {
          "internalType": "address",
          "name": "_interchainGasPaymaster",
          "type": "address"
        }
      ],
      "name": "setInterchainGasPaymaster",
      "outputs": [],
      "stateMutability": "nonpayable",
      "type": "function"
    },
    {
      "inputs": [
        {
          "internalType": "address",
          "name": "_module",
          "type": "address"
        }
      ],
      "name": "setInterchainSecurityModule",
      "outputs": [],
      "stateMutability": "nonpayable",
      "type": "function"
    },
    {
      "inputs": [
        {
          "internalType": "address",
          "name": "_mailbox",
          "type": "address"
        }
      ],
      "name": "setMailbox",
      "outputs": [],
      "stateMutability": "nonpayable",
      "type": "function"
    },
    {
      "inputs": [],
      "name": "symbol",
      "outputs": [
        {
          "internalType": "string",
          "name": "",
          "type": "string"
        }
      ],
      "stateMutability": "view",
      "type": "function"
    },
    {
      "inputs": [],
      "name": "totalSupply",
      "outputs": [
        {
          "internalType": "uint256",
          "name": "",
          "type": "uint256"
        }
      ],
      "stateMutability": "view",
      "type": "function"
    },
    {
      "inputs": [
        {
          "internalType": "address",
          "name": "to",
          "type": "address"
        },
        {
          "internalType": "uint256",
          "name": "amount",
          "type": "uint256"
        }
      ],
      "name": "transfer",
      "outputs": [
        {
          "internalType": "bool",
          "name": "",
          "type": "bool"
        }
      ],
      "stateMutability": "nonpayable",
      "type": "function"
    },
    {
      "inputs": [
        {
          "internalType": "address",
          "name": "from",
          "type": "address"
        },
        {
          "internalType": "address",
          "name": "to",
          "type": "address"
        },
        {
          "internalType": "uint256",
          "name": "amount",
          "type": "uint256"
        }
      ],
      "name": "transferFrom",
      "outputs": [
        {
          "internalType": "bool",
          "name": "",
          "type": "bool"
        }
      ],
      "stateMutability": "nonpayable",
      "type": "function"
    },
    {
      "inputs": [
        {
          "internalType": "address",
          "name": "newOwner",
          "type": "address"
        }
      ],
      "name": "transferOwnership",
      "outputs": [],
      "stateMutability": "nonpayable",
      "type": "function"
    },
    {
      "inputs": [
        {
          "internalType": "uint32",
          "name": "_destination",
          "type": "uint32"
        },
        {
          "internalType": "bytes32",
          "name": "_recipient",
          "type": "bytes32"
        },
        {
          "internalType": "uint256",
          "name": "_amountOrId",
          "type": "uint256"
        }
      ],
      "name": "transferRemote",
      "outputs": [
        {
          "internalType": "bytes32",
          "name": "messageId",
          "type": "bytes32"
        }
      ],
      "stateMutability": "payable",
      "type": "function"
    }
  ],
  "bytecode": "0x60a06040523480156200001157600080fd5b5060405162004ae238038062004ae2833981810160405281019062000037919062000091565b808060ff1660808160ff16815250505050620000c3565b600080fd5b600060ff82169050919050565b6200006b8162000053565b81146200007757600080fd5b50565b6000815190506200008b8162000060565b92915050565b600060208284031215620000aa57620000a96200004e565b5b6000620000ba848285016200007a565b91505092915050565b608051614a03620000df6000396000610a7c0152614a036000f3fe6080604052600436106101ee5760003560e01c80638da5cb5b1161010d578063d5438eae116100a0578063f1bd6f0a1161006f578063f1bd6f0a1461072c578063f2ed8c5314610755578063f2fde38b14610792578063f3c61d6b146107bb578063f5f09f2e146107e4576101ee565b8063d5438eae14610670578063dd62ed3e1461069b578063de523cf3146106d8578063e9198bf914610703576101ee565b8063a478333b116100dc578063a478333b146105b6578063a9059cbb146105e1578063b1bd64361461061e578063b49c53a714610647576101ee565b80638da5cb5b146104fa57806395d89b41146105255780639ab8367e14610550578063a457c2d714610579576101ee565b8063395093511161018557806370a082311161015457806370a0823114610439578063715018a614610476578063775313a11461048d57806381b4e8b4146104ca576101ee565b8063395093511461037d57806339bb4ad9146103ba578063440df4f4146103e557806356d5d47514610410576101ee565b80631b177491116101c15780631b177491146102af57806323b872dd146102d85780632ead72f614610315578063313ce56714610352576101ee565b806306fdde03146101f3578063095ea7b31461021e5780630e72cc061461025b57806318160ddd14610284575b600080fd5b3480156101ff57600080fd5b50610208610814565b6040516102159190612cb1565b60405180910390f35b34801561022a57600080fd5b5061024560048036038101906102409190612d7b565b6108a6565b6040516102529190612dd6565b60405180910390f35b34801561026757600080fd5b50610282600480360381019061027d9190612df1565b6108c9565b005b34801561029057600080fd5b506102996108dd565b6040516102a69190612e2d565b60405180910390f35b3480156102bb57600080fd5b506102d660048036038101906102d19190612e84565b6108e7565b005b3480156102e457600080fd5b506102ff60048036038101906102fa9190612eff565b610a20565b60405161030c9190612dd6565b60405180910390f35b34801561032157600080fd5b5061033c60048036038101906103379190612f52565b610a4f565b6040516103499190612f98565b60405180910390f35b34801561035e57600080fd5b50610367610a78565b6040516103749190612fcf565b60405180910390f35b34801561038957600080fd5b506103a4600480360381019061039f9190612d7b565b610aa0565b6040516103b19190612dd6565b60405180910390f35b3480156103c657600080fd5b506103cf610ad7565b6040516103dc9190613049565b60405180910390f35b3480156103f157600080fd5b506103fa610afd565b6040516104079190613122565b60405180910390f35b34801561041c57600080fd5b50610437600480360381019061043291906131d5565b610b0e565b005b34801561044557600080fd5b50610460600480360381019061045b9190612df1565b610c19565b60405161046d9190612e2d565b60405180910390f35b34801561048257600080fd5b5061048b610c62565b005b34801561049957600080fd5b506104b460048036038101906104af9190612f52565b610c76565b6040516104c19190612e2d565b60405180910390f35b6104e460048036038101906104df9190613249565b610c8e565b6040516104f19190612f98565b60405180910390f35b34801561050657600080fd5b5061050f610ca5565b60405161051c91906132ab565b60405180910390f35b34801561053157600080fd5b5061053a610ccf565b6040516105479190612cb1565b60405180910390f35b34801561055c57600080fd5b50610577600480360381019061057291906133f6565b610d61565b005b34801561058557600080fd5b506105a0600480360381019061059b9190612d7b565b610eba565b6040516105ad9190612dd6565b60405180910390f35b3480156105c257600080fd5b506105cb610f31565b6040516105d89190612e2d565b60405180910390f35b3480156105ed57600080fd5b5061060860048036038101906106039190612d7b565b610f37565b6040516106159190612dd6565b60405180910390f35b34801561062a57600080fd5b50610645600480360381019061064091906134ff565b610f5a565b005b34801561065357600080fd5b5061066e6004803603810190610669919061354c565b610fd9565b005b34801561067c57600080fd5b50610685610fef565b60405161069291906135ad565b60405180910390f35b3480156106a757600080fd5b506106c260048036038101906106bd91906135c8565b611015565b6040516106cf9190612e2d565b60405180910390f35b3480156106e457600080fd5b506106ed61109c565b6040516106fa9190613629565b60405180910390f35b34801561070f57600080fd5b5061072a600480360381019061072591906136f0565b6110c2565b005b34801561073857600080fd5b50610753600480360381019061074e9190612df1565b61118b565b005b34801561076157600080fd5b5061077c60048036038101906107779190612f52565b61119f565b6040516107899190612e2d565b60405180910390f35b34801561079e57600080fd5b506107b960048036038101906107b49190612df1565b611265565b005b3480156107c757600080fd5b506107e260048036038101906107dd9190612df1565b6112e8565b005b6107fe60048036038101906107f99190613771565b6112fc565b60405161080b9190612f98565b60405180910390f35b60606036805461082390613807565b80601f016020809104026020016040519081016040528092919081815260200182805461084f90613807565b801561089c5780601f106108715761010080835404028352916020019161089c565b820191906000526020600020905b81548152906001019060200180831161087f57829003601f168201915b5050505050905090565b6000806108b1611393565b90506108be81858561139b565b600191505092915050565b6108d1611564565b6108da816115e2565b50565b6000603554905090565b60006108f6838387878a6116e8565b9050600073ffffffffffffffffffffffffffffffffffffffff16610100600083815260200190815260200160002060009054906101000a900473ffffffffffffffffffffffffffffffffffffffff1673ffffffffffffffffffffffffffffffffffffffff161461099b576040517f08c379a000000000000000000000000000000000000000000000000000000000815260040161099290613884565b60405180910390fd5b33610100600083815260200190815260200160002060006101000a81548173ffffffffffffffffffffffffffffffffffffffff021916908373ffffffffffffffffffffffffffffffffffffffff160217905550610a033385876109fe91906138d3565b611724565b610a18868587610a1391906138d3565b611732565b505050505050565b600080610a2b611393565b9050610a38858285611740565b610a438585856117cc565b60019150509392505050565b600080610a6c8363ffffffff1660ca611a4590919063ffffffff16565b91505080915050919050565b60007f0000000000000000000000000000000000000000000000000000000000000000905090565b600080610aab611393565b9050610acc818585610abd8589611015565b610ac79190613907565b61139b565b600191505092915050565b609860009054906101000a900473ffffffffffffffffffffffffffffffffffffffff1681565b6060610b0960ca611a6c565b905090565b609760009054906101000a900473ffffffffffffffffffffffffffffffffffffffff1673ffffffffffffffffffffffffffffffffffffffff163373ffffffffffffffffffffffffffffffffffffffff1614610b9e576040517f08c379a0000000000000000000000000000000000000000000000000000000008152600401610b9590613987565b60405180910390fd5b8383610baa8282611b35565b60405180608001604052806043815260200161498b6043913990610c04576040517f08c379a0000000000000000000000000000000000000000000000000000000008152600401610bfb9190612cb1565b60405180910390fd5b50610c1186868686611b4a565b505050505050565b6000603360008373ffffffffffffffffffffffffffffffffffffffff1673ffffffffffffffffffffffffffffffffffffffff168152602001908152602001600020549050919050565b610c6a611564565b610c746000611b5c565b565b60fe6020528060005260406000206000915090505481565b6000610c9c84848434611c22565b90509392505050565b6000606560009054906101000a900473ffffffffffffffffffffffffffffffffffffffff16905090565b606060378054610cde90613807565b80601f0160208091040260200160405190810160405280929190818152602001828054610d0a90613807565b8015610d575780601f10610d2c57610100808354040283529160200191610d57565b820191906000526020600020905b815481529060010190602001808311610d3a57829003601f168201915b5050505050905090565b60008060019054906101000a900460ff16159050808015610d925750600160008054906101000a900460ff1660ff16105b80610dbf5750610da130611c90565b158015610dbe5750600160008054906101000a900460ff1660ff16145b5b610dfe576040517f08c379a0000000000000000000000000000000000000000000000000000000008152600401610df590613a19565b60405180910390fd5b60016000806101000a81548160ff021916908360ff1602179055508015610e3b576001600060016101000a81548160ff0219169083151502179055505b610e458686611cb3565b610e4f8383611d18565b610e593385611d75565b8015610eb25760008060016101000a81548160ff0219169083151502179055507f7f26b83ff96e1f2b6a682f133852f6798a09c465da95921460cefb38474024986001604051610ea99190613a74565b60405180910390a15b505050505050565b600080610ec5611393565b90506000610ed38286611015565b905083811015610f18576040517f08c379a0000000000000000000000000000000000000000000000000000000008152600401610f0f90613b01565b60405180910390fd5b610f25828686840361139b565b60019250505092915050565b60ff5481565b600080610f42611393565b9050610f4f8185856117cc565b600191505092915050565b610f62611564565b60005b82829050811015610fd457610fc0838383818110610f8657610f85613b21565b5b9050604002016000016020810190610f9e9190612f52565b848484818110610fb157610fb0613b21565b5b90506040020160200135611ecc565b600181610fcd9190613907565b9050610f65565b505050565b610fe1611564565b610feb8282611f32565b5050565b609760009054906101000a900473ffffffffffffffffffffffffffffffffffffffff1681565b6000603460008473ffffffffffffffffffffffffffffffffffffffff1673ffffffffffffffffffffffffffffffffffffffff16815260200190815260200160002060008373ffffffffffffffffffffffffffffffffffffffff1673ffffffffffffffffffffffffffffffffffffffff16815260200190815260200160002054905092915050565b609960009054906101000a900473ffffffffffffffffffffffffffffffffffffffff1681565b6110ca611564565b818190508484905014611112576040517f08c379a000000000000000000000000000000000000000000000000000000000815260040161110990613b9c565b60405180910390fd5b600084849050905060005b818110156111835761116f86868381811061113b5761113a613b21565b5b90506020020160208101906111509190612f52565b85858481811061116357611162613b21565b5b90506020020135611f32565b60018161117c9190613907565b905061111d565b505050505050565b611193611564565b61119c81611f90565b50565b6000609860009054906101000a900473ffffffffffffffffffffffffffffffffffffffff1673ffffffffffffffffffffffffffffffffffffffff1663a69297938360fe60008663ffffffff1663ffffffff168152602001908152602001600020546040518363ffffffff1660e01b815260040161121d929190613bcb565b602060405180830381865afa15801561123a573d6000803e3d6000fd5b505050506040513d601f19601f8201168201806040525081019061125e9190613c09565b9050919050565b61126d611564565b600073ffffffffffffffffffffffffffffffffffffffff168173ffffffffffffffffffffffffffffffffffffffff16036112dc576040517f08c379a00000000000000000000000000000000000000000000000000000000081526004016112d390613ca8565b60405180910390fd5b6112e581611b5c565b50565b6112f0611564565b6112f981612061565b50565b60008060ff5490506001816113119190613907565b60ff819055506000611330858560018561132b9190613907565b612132565b905061134887611341888885612169565b3433612198565b9250858763ffffffff167fd229aacb94204188fe8042965fa6b269c62dc5818b21238779ab64bdd17efeec876040516113819190612e2d565b60405180910390a35050949350505050565b600033905090565b600073ffffffffffffffffffffffffffffffffffffffff168373ffffffffffffffffffffffffffffffffffffffff160361140a576040517f08c379a000000000000000000000000000000000000000000000000000000000815260040161140190613d3a565b60405180910390fd5b600073ffffffffffffffffffffffffffffffffffffffff168273ffffffffffffffffffffffffffffffffffffffff1603611479576040517f08c379a000000000000000000000000000000000000000000000000000000000815260040161147090613dcc565b60405180910390fd5b80603460008573ffffffffffffffffffffffffffffffffffffffff1673ffffffffffffffffffffffffffffffffffffffff16815260200190815260200160002060008473ffffffffffffffffffffffffffffffffffffffff1673ffffffffffffffffffffffffffffffffffffffff168152602001908152602001600020819055508173ffffffffffffffffffffffffffffffffffffffff168373ffffffffffffffffffffffffffffffffffffffff167f8c5be1e5ebec7d5bd14f71427d1e84f3dd0314c0f7b2291e5b200ac8c7c3b925836040516115579190612e2d565b60405180910390a3505050565b61156c611393565b73ffffffffffffffffffffffffffffffffffffffff1661158a610ca5565b73ffffffffffffffffffffffffffffffffffffffff16146115e0576040517f08c379a00000000000000000000000000000000000000000000000000000000081526004016115d790613e38565b60405180910390fd5b565b600073ffffffffffffffffffffffffffffffffffffffff168173ffffffffffffffffffffffffffffffffffffffff1614806116225750611621816121d0565b5b611661576040517f08c379a000000000000000000000000000000000000000000000000000000000815260040161165890613ea4565b60405180910390fd5b80609960006101000a81548173ffffffffffffffffffffffffffffffffffffffff021916908373ffffffffffffffffffffffffffffffffffffffff1602179055508073ffffffffffffffffffffffffffffffffffffffff167ffec811ed4e60aebdaf7a79cad8a97196bf56e35362f039705598226d30c9d24860405160405180910390a250565b60008585858585604051602001611703959493929190613f63565b60405160208183030381529060405280519060200120905095945050505050565b61172e82826121f3565b5050565b61173c8282611d75565b5050565b600061174c8484611015565b90507fffffffffffffffffffffffffffffffffffffffffffffffffffffffffffffffff81146117c657818110156117b8576040517f08c379a00000000000000000000000000000000000000000000000000000000081526004016117af9061400e565b60405180910390fd5b6117c5848484840361139b565b5b50505050565b600073ffffffffffffffffffffffffffffffffffffffff168373ffffffffffffffffffffffffffffffffffffffff160361183b576040517f08c379a0000000000000000000000000000000000000000000000000000000008152600401611832906140a0565b60405180910390fd5b600073ffffffffffffffffffffffffffffffffffffffff168273ffffffffffffffffffffffffffffffffffffffff16036118aa576040517f08c379a00000000000000000000000000000000000000000000000000000000081526004016118a190614132565b60405180910390fd5b6118b58383836123c2565b6000603360008573ffffffffffffffffffffffffffffffffffffffff1673ffffffffffffffffffffffffffffffffffffffff1681526020019081526020016000205490508181101561193c576040517f08c379a0000000000000000000000000000000000000000000000000000000008152600401611933906141c4565b60405180910390fd5b818103603360008673ffffffffffffffffffffffffffffffffffffffff1673ffffffffffffffffffffffffffffffffffffffff1681526020019081526020016000208190555081603360008573ffffffffffffffffffffffffffffffffffffffff1673ffffffffffffffffffffffffffffffffffffffff168152602001908152602001600020600082825401925050819055508273ffffffffffffffffffffffffffffffffffffffff168473ffffffffffffffffffffffffffffffffffffffff167fddf252ad1be2c89b69c2b068fc378daa952ba7f163c4a11628f55a4df523b3ef84604051611a2c9190612e2d565b60405180910390a3611a3f8484846123c7565b50505050565b600080611a618360001b856000016123cc90919063ffffffff16565b915091509250929050565b60606000611a798361241b565b9050805167ffffffffffffffff811115611a9657611a956132cb565b5b604051908082528060200260200182016040528015611ac45781602001602082028036833780820191505090505b50915060005b8151811015611b2e57818181518110611ae657611ae5613b21565b5b6020026020010151838281518110611b0157611b00613b21565b5b602002602001019063ffffffff16908163ffffffff16815250508080611b26906141e4565b915050611aca565b5050919050565b600081611b4184610a4f565b14905092915050565b611b56848484846124d8565b50505050565b6000606560009054906101000a900473ffffffffffffffffffffffffffffffffffffffff16905081606560006101000a81548173ffffffffffffffffffffffffffffffffffffffff021916908373ffffffffffffffffffffffffffffffffffffffff1602179055508173ffffffffffffffffffffffffffffffffffffffff168173ffffffffffffffffffffffffffffffffffffffff167f8be0079c531659141344cd1fd0a4f28419497f9722a3daafe3b4186f6b6457e060405160405180910390a35050565b600080611c2e84612563565b9050611c4686611c3f878785612169565b8533612198565b9150848663ffffffff167fd229aacb94204188fe8042965fa6b269c62dc5818b21238779ab64bdd17efeec86604051611c7f9190612e2d565b60405180910390a350949350505050565b6000808273ffffffffffffffffffffffffffffffffffffffff163b119050919050565b600060019054906101000a900460ff16611d02576040517f08c379a0000000000000000000000000000000000000000000000000000000008152600401611cf99061429e565b60405180910390fd5b611d0b81611f90565b611d1482612586565b5050565b600060019054906101000a900460ff16611d67576040517f08c379a0000000000000000000000000000000000000000000000000000000008152600401611d5e9061429e565b60405180910390fd5b611d7182826125e9565b5050565b600073ffffffffffffffffffffffffffffffffffffffff168273ffffffffffffffffffffffffffffffffffffffff1603611de4576040517f08c379a0000000000000000000000000000000000000000000000000000000008152600401611ddb9061430a565b60405180910390fd5b611df0600083836123c2565b8060356000828254611e029190613907565b9250508190555080603360008473ffffffffffffffffffffffffffffffffffffffff1673ffffffffffffffffffffffffffffffffffffffff168152602001908152602001600020600082825401925050819055508173ffffffffffffffffffffffffffffffffffffffff16600073ffffffffffffffffffffffffffffffffffffffff167fddf252ad1be2c89b69c2b068fc378daa952ba7f163c4a11628f55a4df523b3ef83604051611eb49190612e2d565b60405180910390a3611ec8600083836123c7565b5050565b8060fe60008463ffffffff1663ffffffff168152602001908152602001600020819055508163ffffffff167f90563f253ecb04527a6a7ae1a8cbe2bdc6caefb39d5f7b06a973cf5e7f8035a482604051611f269190612e2d565b60405180910390a25050565b611f4e8263ffffffff168260ca61265c9092919063ffffffff16565b8163ffffffff167f97fd51fef1f80c854cbd0150c248e8b2ac4ecdc97cc05e742b5f61c9f4dc645882604051611f849190612f98565b60405180910390a25050565b80611f9a816121d0565b611fd9576040517f08c379a0000000000000000000000000000000000000000000000000000000008152600401611fd090613ea4565b60405180910390fd5b81609860006101000a81548173ffffffffffffffffffffffffffffffffffffffff021916908373ffffffffffffffffffffffffffffffffffffffff1602179055508173ffffffffffffffffffffffffffffffffffffffff167fb87f5a0bface22cde699143559fb99f990ae54eea236995fc54178af91af859f60405160405180910390a25050565b8061206b816121d0565b6120aa576040517f08c379a00000000000000000000000000000000000000000000000000000000081526004016120a190613ea4565b60405180910390fd5b81609760006101000a81548173ffffffffffffffffffffffffffffffffffffffff021916908373ffffffffffffffffffffffffffffffffffffffff1602179055508173ffffffffffffffffffffffffffffffffffffffff167f7a61e573722ff8b205c8962b59d37e7d30573f368965597a844a94872204ebd760405160405180910390a25050565b606061213e3385611724565b828260405160200161215192919061432a565b60405160208183030381529060405290509392505050565b6060838383604051602001612180939291906143bb565b60405160208183030381529060405290509392505050565b60006121c6858560fe60008963ffffffff1663ffffffff16815260200190815260200160002054868661267d565b9050949350505050565b6000808273ffffffffffffffffffffffffffffffffffffffff163b119050919050565b600073ffffffffffffffffffffffffffffffffffffffff168273ffffffffffffffffffffffffffffffffffffffff1603612262576040517f08c379a000000000000000000000000000000000000000000000000000000000815260040161225990614466565b60405180910390fd5b61226e826000836123c2565b6000603360008473ffffffffffffffffffffffffffffffffffffffff1673ffffffffffffffffffffffffffffffffffffffff168152602001908152602001600020549050818110156122f5576040517f08c379a00000000000000000000000000000000000000000000000000000000081526004016122ec906144f8565b60405180910390fd5b818103603360008573ffffffffffffffffffffffffffffffffffffffff1673ffffffffffffffffffffffffffffffffffffffff1681526020019081526020016000208190555081603560008282540392505081905550600073ffffffffffffffffffffffffffffffffffffffff168373ffffffffffffffffffffffffffffffffffffffff167fddf252ad1be2c89b69c2b068fc378daa952ba7f163c4a11628f55a4df523b3ef846040516123a99190612e2d565b60405180910390a36123bd836000846123c7565b505050565b505050565b505050565b60008060008460020160008581526020019081526020016000205490506000801b810361240b576123fd8585612728565b6000801b9250925050612414565b60018192509250505b9250929050565b6060600061242b83600001612748565b90508067ffffffffffffffff811115612447576124466132cb565b5b6040519080825280602002602001820160405280156124755781602001602082028036833780820191505090505b50915060005b818110156124d15761249c818560000160000161275d90919063ffffffff16565b60001c8382815181106124b2576124b1613b21565b5b60200260200101818152505080806124c9906141e4565b91505061247b565b5050919050565b60006124e48383612774565b905060006124f2848461279d565b905036600061250186866127c9565b9150915061251a612511856127ea565b848a85856127f7565b838863ffffffff167fba20947a325f450d232530e5f5fce293e7963499d5309a07cee84a269f2f15a6856040516125519190612e2d565b60405180910390a35050505050505050565b606061256f33836121f3565b604051806020016040528060008152509050919050565b600060019054906101000a900460ff166125d5576040517f08c379a00000000000000000000000000000000000000000000000000000000081526004016125cc9061429e565b60405180910390fd5b6125de81612061565b6125e661281a565b50565b600060019054906101000a900460ff16612638576040517f08c379a000000000000000000000000000000000000000000000000000000000815260040161262f9061429e565b60405180910390fd5b816036908161264791906146ba565b50806037908161265791906146ba565b505050565b6126778260001b82856000016128739092919063ffffffff16565b50505050565b600061268986866128ae565b9050609860009054906101000a900473ffffffffffffffffffffffffffffffffffffffff1673ffffffffffffffffffffffffffffffffffffffff166311bf2c1884838988876040518663ffffffff1660e01b81526004016126ed949392919061478c565b6000604051808303818588803b15801561270657600080fd5b505af115801561271a573d6000803e3d6000fd5b505050505095945050505050565b6000612740828460000161296790919063ffffffff16565b905092915050565b60006127568260000161297e565b9050919050565b600061276c8360000183612993565b905092915050565b6000828260009060209261278a939291906147db565b906127959190614821565b905092915050565b600082826020906040926127b3939291906147db565b906127be9190614821565b60001c905092915050565b366000838360409080926127df939291906147db565b915091509250929050565b60008160001c9050919050565b600061280686868686866129be565b90506128128186611732565b505050505050565b600060019054906101000a900460ff16612869576040517f08c379a00000000000000000000000000000000000000000000000000000000081526004016128609061429e565b60405180910390fd5b612871612a7c565b565b600081846002016000858152602001908152602001600020819055506128a58385600001612add90919063ffffffff16565b90509392505050565b6000806128ba84612af4565b9050609760009054906101000a900473ffffffffffffffffffffffffffffffffffffffff1673ffffffffffffffffffffffffffffffffffffffff1663fa31de018583866040518463ffffffff1660e01b815260040161291b939291906148ca565b6020604051808303816000875af115801561293a573d6000803e3d6000fd5b505050506040513d601f19601f8201168201806040525081019061295e919061491d565b91505092915050565b60006129768360000183612b7d565b905092915050565b600061298c82600001612ba0565b9050919050565b60008260000182815481106129ab576129aa613b21565b5b9060005260206000200154905092915050565b60008083839050036129d257859050612a73565b60008084848101906129e4919061494a565b91509150600061010060006129fc89858c888f6116e8565b815260200190815260200160002060009054906101000a900473ffffffffffffffffffffffffffffffffffffffff169050600073ffffffffffffffffffffffffffffffffffffffff168173ffffffffffffffffffffffffffffffffffffffff1614612a6c57809350505050612a73565b8893505050505b95945050505050565b600060019054906101000a900460ff16612acb576040517f08c379a0000000000000000000000000000000000000000000000000000000008152600401612ac29061429e565b60405180910390fd5b612adb612ad6611393565b611b5c565b565b6000612aec8360000183612bb1565b905092915050565b6000806000612b138463ffffffff1660ca611a4590919063ffffffff16565b915091508160405180608001604052806043815260200161498b6043913990612b72576040517f08c379a0000000000000000000000000000000000000000000000000000000008152600401612b699190612cb1565b60405180910390fd5b508092505050919050565b600080836001016000848152602001908152602001600020541415905092915050565b600081600001805490509050919050565b6000612bbd8383612b7d565b612c16578260000182908060018154018082558091505060019003906000526020600020016000909190919091505582600001805490508360010160008481526020019081526020016000208190555060019050612c1b565b600090505b92915050565b600081519050919050565b600082825260208201905092915050565b60005b83811015612c5b578082015181840152602081019050612c40565b60008484015250505050565b6000601f19601f8301169050919050565b6000612c8382612c21565b612c8d8185612c2c565b9350612c9d818560208601612c3d565b612ca681612c67565b840191505092915050565b60006020820190508181036000830152612ccb8184612c78565b905092915050565b6000604051905090565b600080fd5b600080fd5b600073ffffffffffffffffffffffffffffffffffffffff82169050919050565b6000612d1282612ce7565b9050919050565b612d2281612d07565b8114612d2d57600080fd5b50565b600081359050612d3f81612d19565b92915050565b6000819050919050565b612d5881612d45565b8114612d6357600080fd5b50565b600081359050612d7581612d4f565b92915050565b60008060408385031215612d9257612d91612cdd565b5b6000612da085828601612d30565b9250506020612db185828601612d66565b9150509250929050565b60008115159050919050565b612dd081612dbb565b82525050565b6000602082019050612deb6000830184612dc7565b92915050565b600060208284031215612e0757612e06612cdd565b5b6000612e1584828501612d30565b91505092915050565b612e2781612d45565b82525050565b6000602082019050612e426000830184612e1e565b92915050565b600063ffffffff82169050919050565b612e6181612e48565b8114612e6c57600080fd5b50565b600081359050612e7e81612e58565b92915050565b600080600080600060a08688031215612ea057612e9f612cdd565b5b6000612eae88828901612d30565b9550506020612ebf88828901612d66565b9450506040612ed088828901612d66565b9350506060612ee188828901612e6f565b9250506080612ef288828901612d66565b9150509295509295909350565b600080600060608486031215612f1857612f17612cdd565b5b6000612f2686828701612d30565b9350506020612f3786828701612d30565b9250506040612f4886828701612d66565b9150509250925092565b600060208284031215612f6857612f67612cdd565b5b6000612f7684828501612e6f565b91505092915050565b6000819050919050565b612f9281612f7f565b82525050565b6000602082019050612fad6000830184612f89565b92915050565b600060ff82169050919050565b612fc981612fb3565b82525050565b6000602082019050612fe46000830184612fc0565b92915050565b6000819050919050565b600061300f61300a61300584612ce7565b612fea565b612ce7565b9050919050565b600061302182612ff4565b9050919050565b600061303382613016565b9050919050565b61304381613028565b82525050565b600060208201905061305e600083018461303a565b92915050565b600081519050919050565b600082825260208201905092915050565b6000819050602082019050919050565b61309981612e48565b82525050565b60006130ab8383613090565b60208301905092915050565b6000602082019050919050565b60006130cf82613064565b6130d9818561306f565b93506130e483613080565b8060005b838110156131155781516130fc888261309f565b9750613107836130b7565b9250506001810190506130e8565b5085935050505092915050565b6000602082019050818103600083015261313c81846130c4565b905092915050565b61314d81612f7f565b811461315857600080fd5b50565b60008135905061316a81613144565b92915050565b600080fd5b600080fd5b600080fd5b60008083601f84011261319557613194613170565b5b8235905067ffffffffffffffff8111156131b2576131b1613175565b5b6020830191508360018202830111156131ce576131cd61317a565b5b9250929050565b600080600080606085870312156131ef576131ee612cdd565b5b60006131fd87828801612e6f565b945050602061320e8782880161315b565b935050604085013567ffffffffffffffff81111561322f5761322e612ce2565b5b61323b8782880161317f565b925092505092959194509250565b60008060006060848603121561326257613261612cdd565b5b600061327086828701612e6f565b93505060206132818682870161315b565b925050604061329286828701612d66565b9150509250925092565b6132a581612d07565b82525050565b60006020820190506132c0600083018461329c565b92915050565b600080fd5b7f4e487b7100000000000000000000000000000000000000000000000000000000600052604160045260246000fd5b61330382612c67565b810181811067ffffffffffffffff82111715613322576133216132cb565b5b80604052505050565b6000613335612cd3565b905061334182826132fa565b919050565b600067ffffffffffffffff821115613361576133606132cb565b5b61336a82612c67565b9050602081019050919050565b82818337600083830152505050565b600061339961339484613346565b61332b565b9050828152602081018484840111156133b5576133b46132c6565b5b6133c0848285613377565b509392505050565b600082601f8301126133dd576133dc613170565b5b81356133ed848260208601613386565b91505092915050565b600080600080600060a0868803121561341257613411612cdd565b5b600061342088828901612d30565b955050602061343188828901612d30565b945050604061344288828901612d66565b935050606086013567ffffffffffffffff81111561346357613462612ce2565b5b61346f888289016133c8565b925050608086013567ffffffffffffffff8111156134905761348f612ce2565b5b61349c888289016133c8565b9150509295509295909350565b60008083601f8401126134bf576134be613170565b5b8235905067ffffffffffffffff8111156134dc576134db613175565b5b6020830191508360408202830111156134f8576134f761317a565b5b9250929050565b6000806020838503121561351657613515612cdd565b5b600083013567ffffffffffffffff81111561353457613533612ce2565b5b613540858286016134a9565b92509250509250929050565b6000806040838503121561356357613562612cdd565b5b600061357185828601612e6f565b92505060206135828582860161315b565b9150509250929050565b600061359782613016565b9050919050565b6135a78161358c565b82525050565b60006020820190506135c2600083018461359e565b92915050565b600080604083850312156135df576135de612cdd565b5b60006135ed85828601612d30565b92505060206135fe85828601612d30565b9150509250929050565b600061361382613016565b9050919050565b61362381613608565b82525050565b600060208201905061363e600083018461361a565b92915050565b60008083601f84011261365a57613659613170565b5b8235905067ffffffffffffffff81111561367757613676613175565b5b6020830191508360208202830111156136935761369261317a565b5b9250929050565b60008083601f8401126136b0576136af613170565b5b8235905067ffffffffffffffff8111156136cd576136cc613175565b5b6020830191508360208202830111156136e9576136e861317a565b5b9250929050565b6000806000806040858703121561370a57613709612cdd565b5b600085013567ffffffffffffffff81111561372857613727612ce2565b5b61373487828801613644565b9450945050602085013567ffffffffffffffff81111561375757613756612ce2565b5b6137638782880161369a565b925092505092959194509250565b6000806000806080858703121561378b5761378a612cdd565b5b600061379987828801612e6f565b94505060206137aa8782880161315b565b93505060406137bb87828801612d66565b92505060606137cc87828801612d66565b91505092959194509250565b7f4e487b7100000000000000000000000000000000000000000000000000000000600052602260045260246000fd5b6000600282049050600182168061381f57607f821691505b602082108103613832576138316137d8565b5b50919050565b7f7265717565737420616c72656164792066696c6c656400000000000000000000600082015250565b600061386e601683612c2c565b915061387982613838565b602082019050919050565b6000602082019050818103600083015261389d81613861565b9050919050565b7f4e487b7100000000000000000000000000000000000000000000000000000000600052601160045260246000fd5b60006138de82612d45565b91506138e983612d45565b9250828203905081811115613901576139006138a4565b5b92915050565b600061391282612d45565b915061391d83612d45565b9250828201905080821115613935576139346138a4565b5b92915050565b7f216d61696c626f78000000000000000000000000000000000000000000000000600082015250565b6000613971600883612c2c565b915061397c8261393b565b602082019050919050565b600060208201905081810360008301526139a081613964565b9050919050565b7f496e697469616c697a61626c653a20636f6e747261637420697320616c72656160008201527f647920696e697469616c697a6564000000000000000000000000000000000000602082015250565b6000613a03602e83612c2c565b9150613a0e826139a7565b604082019050919050565b60006020820190508181036000830152613a32816139f6565b9050919050565b6000819050919050565b6000613a5e613a59613a5484613a39565b612fea565b612fb3565b9050919050565b613a6e81613a43565b82525050565b6000602082019050613a896000830184613a65565b92915050565b7f45524332303a2064656372656173656420616c6c6f77616e63652062656c6f7760008201527f207a65726f000000000000000000000000000000000000000000000000000000602082015250565b6000613aeb602583612c2c565b9150613af682613a8f565b604082019050919050565b60006020820190508181036000830152613b1a81613ade565b9050919050565b7f4e487b7100000000000000000000000000000000000000000000000000000000600052603260045260246000fd5b7f216c656e67746800000000000000000000000000000000000000000000000000600082015250565b6000613b86600783612c2c565b9150613b9182613b50565b602082019050919050565b60006020820190508181036000830152613bb581613b79565b9050919050565b613bc581612e48565b82525050565b6000604082019050613be06000830185613bbc565b613bed6020830184612e1e565b9392505050565b600081519050613c0381612d4f565b92915050565b600060208284031215613c1f57613c1e612cdd565b5b6000613c2d84828501613bf4565b91505092915050565b7f4f776e61626c653a206e6577206f776e657220697320746865207a65726f206160008201527f6464726573730000000000000000000000000000000000000000000000000000602082015250565b6000613c92602683612c2c565b9150613c9d82613c36565b604082019050919050565b60006020820190508181036000830152613cc181613c85565b9050919050565b7f45524332303a20617070726f76652066726f6d20746865207a65726f2061646460008201527f7265737300000000000000000000000000000000000000000000000000000000602082015250565b6000613d24602483612c2c565b9150613d2f82613cc8565b604082019050919050565b60006020820190508181036000830152613d5381613d17565b9050919050565b7f45524332303a20617070726f766520746f20746865207a65726f20616464726560008201527f7373000000000000000000000000000000000000000000000000000000000000602082015250565b6000613db6602283612c2c565b9150613dc182613d5a565b604082019050919050565b60006020820190508181036000830152613de581613da9565b9050919050565b7f4f776e61626c653a2063616c6c6572206973206e6f7420746865206f776e6572600082015250565b6000613e22602083612c2c565b9150613e2d82613dec565b602082019050919050565b60006020820190508181036000830152613e5181613e15565b9050919050565b7f21636f6e74726163740000000000000000000000000000000000000000000000600082015250565b6000613e8e600983612c2c565b9150613e9982613e58565b602082019050919050565b60006020820190508181036000830152613ebd81613e81565b9050919050565b60008160e01b9050919050565b6000613edc82613ec4565b9050919050565b613ef4613eef82612e48565b613ed1565b82525050565b6000819050919050565b613f15613f1082612d45565b613efa565b82525050565b60008160601b9050919050565b6000613f3382613f1b565b9050919050565b6000613f4582613f28565b9050919050565b613f5d613f5882612d07565b613f3a565b82525050565b6000613f6f8288613ee3565b600482019150613f7f8287613f04565b602082019150613f8f8286613f04565b602082019150613f9f8285613f04565b602082019150613faf8284613f4c565b6014820191508190509695505050505050565b7f45524332303a20696e73756666696369656e7420616c6c6f77616e6365000000600082015250565b6000613ff8601d83612c2c565b915061400382613fc2565b602082019050919050565b6000602082019050818103600083015261402781613feb565b9050919050565b7f45524332303a207472616e736665722066726f6d20746865207a65726f20616460008201527f6472657373000000000000000000000000000000000000000000000000000000602082015250565b600061408a602583612c2c565b91506140958261402e565b604082019050919050565b600060208201905081810360008301526140b98161407d565b9050919050565b7f45524332303a207472616e7366657220746f20746865207a65726f206164647260008201527f6573730000000000000000000000000000000000000000000000000000000000602082015250565b600061411c602383612c2c565b9150614127826140c0565b604082019050919050565b6000602082019050818103600083015261414b8161410f565b9050919050565b7f45524332303a207472616e7366657220616d6f756e742065786365656473206260008201527f616c616e63650000000000000000000000000000000000000000000000000000602082015250565b60006141ae602683612c2c565b91506141b982614152565b604082019050919050565b600060208201905081810360008301526141dd816141a1565b9050919050565b60006141ef82612d45565b91507fffffffffffffffffffffffffffffffffffffffffffffffffffffffffffffffff8203614221576142206138a4565b5b600182019050919050565b7f496e697469616c697a61626c653a20636f6e7472616374206973206e6f74206960008201527f6e697469616c697a696e67000000000000000000000000000000000000000000602082015250565b6000614288602b83612c2c565b91506142938261422c565b604082019050919050565b600060208201905081810360008301526142b78161427b565b9050919050565b7f45524332303a206d696e7420746f20746865207a65726f206164647265737300600082015250565b60006142f4601f83612c2c565b91506142ff826142be565b602082019050919050565b60006020820190508181036000830152614323816142e7565b9050919050565b600060408201905061433f6000830185612e1e565b61434c6020830184612e1e565b9392505050565b6000819050919050565b61436e61436982612f7f565b614353565b82525050565b600081519050919050565b600081905092915050565b600061439582614374565b61439f818561437f565b93506143af818560208601612c3d565b80840191505092915050565b60006143c7828661435d565b6020820191506143d78285613f04565b6020820191506143e7828461438a565b9150819050949350505050565b7f45524332303a206275726e2066726f6d20746865207a65726f2061646472657360008201527f7300000000000000000000000000000000000000000000000000000000000000602082015250565b6000614450602183612c2c565b915061445b826143f4565b604082019050919050565b6000602082019050818103600083015261447f81614443565b9050919050565b7f45524332303a206275726e20616d6f756e7420657863656564732062616c616e60008201527f6365000000000000000000000000000000000000000000000000000000000000602082015250565b60006144e2602283612c2c565b91506144ed82614486565b604082019050919050565b60006020820190508181036000830152614511816144d5565b9050919050565b60008190508160005260206000209050919050565b60006020601f8301049050919050565b600082821b905092915050565b60006008830261457a7fffffffffffffffffffffffffffffffffffffffffffffffffffffffffffffffff8261453d565b614584868361453d565b95508019841693508086168417925050509392505050565b60006145b76145b26145ad84612d45565b612fea565b612d45565b9050919050565b6000819050919050565b6145d18361459c565b6145e56145dd826145be565b84845461454a565b825550505050565b600090565b6145fa6145ed565b6146058184846145c8565b505050565b5b818110156146295761461e6000826145f2565b60018101905061460b565b5050565b601f82111561466e5761463f81614518565b6146488461452d565b81016020851015614657578190505b61466b6146638561452d565b83018261460a565b50505b505050565b600082821c905092915050565b600061469160001984600802614673565b1980831691505092915050565b60006146aa8383614680565b9150826002028217905092915050565b6146c382612c21565b67ffffffffffffffff8111156146dc576146db6132cb565b5b6146e68254613807565b6146f182828561462d565b600060209050601f8311600181146147245760008415614712578287015190505b61471c858261469e565b865550614784565b601f19841661473286614518565b60005b8281101561475a57848901518255600182019150602085019450602081019050614735565b868310156147775784890151614773601f891682614680565b8355505b6001600288020188555050505b505050505050565b60006080820190506147a16000830187612f89565b6147ae6020830186613bbc565b6147bb6040830185612e1e565b6147c8606083018461329c565b95945050505050565b600080fd5b600080fd5b600080858511156147ef576147ee6147d1565b5b83861115614800576147ff6147d6565b5b6001850283019150848603905094509492505050565b600082905092915050565b600061482d8383614816565b826148388135612f7f565b92506020821015614878576148737fffffffffffffffffffffffffffffffffffffffffffffffffffffffffffffffff8360200360080261453d565b831692505b505092915050565b600082825260208201905092915050565b600061489c82614374565b6148a68185614880565b93506148b6818560208601612c3d565b6148bf81612c67565b840191505092915050565b60006060820190506148df6000830186613bbc565b6148ec6020830185612f89565b81810360408301526148fe8184614891565b9050949350505050565b60008151905061491781613144565b92915050565b60006020828403121561493357614932612cdd565b5b600061494184828501614908565b91505092915050565b6000806040838503121561496157614960612cdd565b5b600061496f85828601612d66565b925050602061498085828601612d66565b915050925092905056fe4e6f20726f7574657220656e726f6c6c656420666f7220646f6d61696e2e2044696420796f7520737065636966792074686520726967687420646f6d61696e2049443fa2646970667358221220c14552771ae4c287924c40d77542afb6211048c2150985141d46033b488eefb664736f6c63430008100033",
  "linkReferences": {},
  "deployedLinkReferences": {}
}