{
  "_format": "hh-sol-artifact-1",
  "contractName": "FastHypERC20Collateral",
  "sourceName": "contracts/FastHypERC20Collateral.sol",
  "abi": [
    {
      "inputs": [
        {
          "internalType": "address",
          "name": "erc20",
          "type": "address"
        }
      ],
      "stateMutability": "nonpayable",
      "type": "constructor"
    },
    {
      "anonymous": false,
      "inputs": [
        {
          "indexed": true,
          "internalType": "uint32",
          "name": "domain",
          "type": "uint32"
        },
        {
          "indexed": false,
          "internalType": "uint256",
          "name": "gas",
          "type": "uint256"
        }
      ],
      "name": "DestinationGasSet",
      "type": "event"
    },
    {
      "anonymous": false,
      "inputs": [
        {
          "indexed": false,
          "internalType": "uint8",
          "name": "version",
          "type": "uint8"
        }
      ],
      "name": "Initialized",
      "type": "event"
    },
    {
      "anonymous": false,
      "inputs": [
        {
          "indexed": true,
          "internalType": "address",
          "name": "interchainGasPaymaster",
          "type": "address"
        }
      ],
      "name": "InterchainGasPaymasterSet",
      "type": "event"
    },
    {
      "anonymous": false,
      "inputs": [
        {
          "indexed": true,
          "internalType": "address",
          "name": "module",
          "type": "address"
        }
      ],
      "name": "InterchainSecurityModuleSet",
      "type": "event"
    },
    {
      "anonymous": false,
      "inputs": [
        {
          "indexed": true,
          "internalType": "address",
          "name": "mailbox",
          "type": "address"
        }
      ],
      "name": "MailboxSet",
      "type": "event"
    },
    {
      "anonymous": false,
      "inputs": [
        {
          "indexed": true,
          "internalType": "address",
          "name": "previousOwner",
          "type": "address"
        },
        {
          "indexed": true,
          "internalType": "address",
          "name": "newOwner",
          "type": "address"
        }
      ],
      "name": "OwnershipTransferred",
      "type": "event"
    },
    {
      "anonymous": false,
      "inputs": [
        {
          "indexed": true,
          "internalType": "uint32",
          "name": "origin",
          "type": "uint32"
        },
        {
          "indexed": true,
          "internalType": "bytes32",
          "name": "recipient",
          "type": "bytes32"
        },
        {
          "indexed": false,
          "internalType": "uint256",
          "name": "amount",
          "type": "uint256"
        }
      ],
      "name": "ReceivedTransferRemote",
      "type": "event"
    },
    {
      "anonymous": false,
      "inputs": [
        {
          "indexed": true,
          "internalType": "uint32",
          "name": "domain",
          "type": "uint32"
        },
        {
          "indexed": false,
          "internalType": "bytes32",
          "name": "router",
          "type": "bytes32"
        }
      ],
      "name": "RemoteRouterEnrolled",
      "type": "event"
    },
    {
      "anonymous": false,
      "inputs": [
        {
          "indexed": true,
          "internalType": "uint32",
          "name": "destination",
          "type": "uint32"
        },
        {
          "indexed": true,
          "internalType": "bytes32",
          "name": "recipient",
          "type": "bytes32"
        },
        {
          "indexed": false,
          "internalType": "uint256",
          "name": "amount",
          "type": "uint256"
        }
      ],
      "name": "SentTransferRemote",
      "type": "event"
    },
    {
      "inputs": [
        {
          "internalType": "address",
          "name": "_account",
          "type": "address"
        }
      ],
      "name": "balanceOf",
      "outputs": [
        {
          "internalType": "uint256",
          "name": "",
          "type": "uint256"
        }
      ],
      "stateMutability": "view",
      "type": "function"
    },
    {
      "inputs": [
        {
          "internalType": "uint32",
          "name": "",
          "type": "uint32"
        }
      ],
      "name": "destinationGas",
      "outputs": [
        {
          "internalType": "uint256",
          "name": "",
          "type": "uint256"
        }
      ],
      "stateMutability": "view",
      "type": "function"
    },
    {
      "inputs": [],
      "name": "domains",
      "outputs": [
        {
          "internalType": "uint32[]",
          "name": "",
          "type": "uint32[]"
        }
      ],
      "stateMutability": "view",
      "type": "function"
    },
    {
      "inputs": [
        {
          "internalType": "uint32",
          "name": "_domain",
          "type": "uint32"
        },
        {
          "internalType": "bytes32",
          "name": "_router",
          "type": "bytes32"
        }
      ],
      "name": "enrollRemoteRouter",
      "outputs": [],
      "stateMutability": "nonpayable",
      "type": "function"
    },
    {
      "inputs": [
        {
          "internalType": "uint32[]",
          "name": "_domains",
          "type": "uint32[]"
        },
        {
          "internalType": "bytes32[]",
          "name": "_addresses",
          "type": "bytes32[]"
        }
      ],
      "name": "enrollRemoteRouters",
      "outputs": [],
      "stateMutability": "nonpayable",
      "type": "function"
    },
    {
      "inputs": [],
      "name": "fastTransferId",
      "outputs": [
        {
          "internalType": "uint256",
          "name": "",
          "type": "uint256"
        }
      ],
      "stateMutability": "view",
      "type": "function"
    },
    {
      "inputs": [
        {
          "internalType": "uint32",
          "name": "_destination",
          "type": "uint32"
        },
        {
          "internalType": "bytes32",
          "name": "_recipient",
          "type": "bytes32"
        },
        {
          "internalType": "uint256",
          "name": "_amountOrId",
          "type": "uint256"
        },
        {
          "internalType": "uint256",
          "name": "_fastFee",
          "type": "uint256"
        }
      ],
      "name": "fastTransferRemote",
      "outputs": [
        {
          "internalType": "bytes32",
          "name": "messageId",
          "type": "bytes32"
        }
      ],
      "stateMutability": "payable",
      "type": "function"
    },
    {
      "inputs": [
        {
          "internalType": "address",
          "name": "_recipient",
          "type": "address"
        },
        {
          "internalType": "uint256",
          "name": "_amount",
          "type": "uint256"
        },
        {
          "internalType": "uint256",
          "name": "_fastFee",
          "type": "uint256"
        },
        {
          "internalType": "uint32",
          "name": "_origin",
          "type": "uint32"
        },
        {
          "internalType": "uint256",
          "name": "_fastTransferId",
          "type": "uint256"
        }
      ],
      "name": "fillFastTransfer",
      "outputs": [],
      "stateMutability": "nonpayable",
      "type": "function"
    },
    {
      "inputs": [
        {
          "internalType": "uint32",
          "name": "_origin",
          "type": "uint32"
        },
        {
          "internalType": "bytes32",
          "name": "_sender",
          "type": "bytes32"
        },
        {
          "internalType": "bytes",
          "name": "_message",
          "type": "bytes"
        }
      ],
      "name": "handle",
      "outputs": [],
      "stateMutability": "nonpayable",
      "type": "function"
    },
    {
      "inputs": [
        {
          "internalType": "address",
          "name": "_mailbox",
          "type": "address"
        },
        {
          "internalType": "address",
          "name": "_interchainGasPaymaster",
          "type": "address"
        }
      ],
      "name": "initialize",
      "outputs": [],
      "stateMutability": "nonpayable",
      "type": "function"
    },
    {
      "inputs": [],
      "name": "interchainGasPaymaster",
      "outputs": [
        {
          "internalType": "contract IInterchainGasPaymaster",
          "name": "",
          "type": "address"
        }
      ],
      "stateMutability": "view",
      "type": "function"
    },
    {
      "inputs": [],
      "name": "interchainSecurityModule",
      "outputs": [
        {
          "internalType": "contract IInterchainSecurityModule",
          "name": "",
          "type": "address"
        }
      ],
      "stateMutability": "view",
      "type": "function"
    },
    {
      "inputs": [],
      "name": "mailbox",
      "outputs": [
        {
          "internalType": "contract IMailbox",
          "name": "",
          "type": "address"
        }
      ],
      "stateMutability": "view",
      "type": "function"
    },
    {
      "inputs": [],
      "name": "owner",
      "outputs": [
        {
          "internalType": "address",
          "name": "",
          "type": "address"
        }
      ],
      "stateMutability": "view",
      "type": "function"
    },
    {
      "inputs": [
        {
          "internalType": "uint32",
          "name": "_destinationDomain",
          "type": "uint32"
        }
      ],
      "name": "quoteGasPayment",
      "outputs": [
        {
          "internalType": "uint256",
          "name": "_gasPayment",
          "type": "uint256"
        }
      ],
      "stateMutability": "view",
      "type": "function"
    },
    {
      "inputs": [],
      "name": "renounceOwnership",
      "outputs": [],
      "stateMutability": "nonpayable",
      "type": "function"
    },
    {
      "inputs": [
        {
          "internalType": "uint32",
          "name": "_domain",
          "type": "uint32"
        }
      ],
      "name": "routers",
      "outputs": [
        {
          "internalType": "bytes32",
          "name": "",
          "type": "bytes32"
        }
      ],
      "stateMutability": "view",
      "type": "function"
    },
    {
      "inputs": [
        {
          "components": [
            {
              "internalType": "uint32",
              "name": "domain",
              "type": "uint32"
            },
            {
              "internalType": "uint256",
              "name": "gas",
              "type": "uint256"
            }
          ],
          "internalType": "struct GasRouter.GasRouterConfig[]",
          "name": "gasConfigs",
          "type": "tuple[]"
        }
      ],
      "name": "setDestinationGas",
      "outputs": [],
      "stateMutability": "nonpayable",
      "type": "function"
    },
    {
      "inputs": [
        {
          "internalType": "address",
          "name": "_interchainGasPaymaster",
          "type": "address"
        }
      ],
      "name": "setInterchainGasPaymaster",
      "outputs": [],
      "stateMutability": "nonpayable",
      "type": "function"
    },
    {
      "inputs": [
        {
          "internalType": "address",
          "name": "_module",
          "type": "address"
        }
      ],
      "name": "setInterchainSecurityModule",
      "outputs": [],
      "stateMutability": "nonpayable",
      "type": "function"
    },
    {
      "inputs": [
        {
          "internalType": "address",
          "name": "_mailbox",
          "type": "address"
        }
      ],
      "name": "setMailbox",
      "outputs": [],
      "stateMutability": "nonpayable",
      "type": "function"
    },
    {
      "inputs": [
        {
          "internalType": "address",
          "name": "newOwner",
          "type": "address"
        }
      ],
      "name": "transferOwnership",
      "outputs": [],
      "stateMutability": "nonpayable",
      "type": "function"
    },
    {
      "inputs": [
        {
          "internalType": "uint32",
          "name": "_destination",
          "type": "uint32"
        },
        {
          "internalType": "bytes32",
          "name": "_recipient",
          "type": "bytes32"
        },
        {
          "internalType": "uint256",
          "name": "_amountOrId",
          "type": "uint256"
        }
      ],
      "name": "transferRemote",
      "outputs": [
        {
          "internalType": "bytes32",
          "name": "messageId",
          "type": "bytes32"
        }
      ],
      "stateMutability": "payable",
      "type": "function"
    },
    {
      "inputs": [],
      "name": "wrappedToken",
      "outputs": [
        {
          "internalType": "contract IERC20",
          "name": "",
          "type": "address"
        }
      ],
      "stateMutability": "view",
      "type": "function"
    }
  ],
  "bytecode": "0x60a06040523480156200001157600080fd5b506040516200395e3803806200395e8339818101604052810190620000379190620000de565b808073ffffffffffffffffffffffffffffffffffffffff1660808173ffffffffffffffffffffffffffffffffffffffff1681525050505062000110565b600080fd5b600073ffffffffffffffffffffffffffffffffffffffff82169050919050565b6000620000a68262000079565b9050919050565b620000b88162000099565b8114620000c457600080fd5b50565b600081519050620000d881620000ad565b92915050565b600060208284031215620000f757620000f662000074565b5b60006200010784828501620000c7565b91505092915050565b608051613816620001486000396000818161097e01528181610a8c0152818161102e0152818161107e01526119db01526138166000f3fe60806040526004361061014b5760003560e01c8063996c6cc3116100b6578063e9198bf91161006f578063e9198bf914610471578063f1bd6f0a1461049a578063f2ed8c53146104c3578063f2fde38b14610500578063f3c61d6b14610529578063f5f09f2e146105525761014b565b8063996c6cc314610373578063a478333b1461039e578063b1bd6436146103c9578063b49c53a7146103f2578063d5438eae1461041b578063de523cf3146104465761014b565b806356d5d4751161010857806356d5d4751461025e57806370a0823114610287578063715018a6146102c4578063775313a1146102db57806381b4e8b4146103185780638da5cb5b146103485761014b565b80630e72cc06146101505780631b177491146101795780632ead72f6146101a257806339bb4ad9146101df578063440df4f41461020a578063485cc95514610235575b600080fd5b34801561015c57600080fd5b50610177600480360381019061017291906122d4565b610582565b005b34801561018557600080fd5b506101a0600480360381019061019b9190612373565b610596565b005b3480156101ae57600080fd5b506101c960048036038101906101c491906123ee565b6106cd565b6040516101d69190612434565b60405180910390f35b3480156101eb57600080fd5b506101f46106f6565b60405161020191906124ae565b60405180910390f35b34801561021657600080fd5b5061021f61071c565b60405161022c9190612587565b60405180910390f35b34801561024157600080fd5b5061025c600480360381019061025791906125a9565b61072d565b005b34801561026a57600080fd5b506102856004803603810190610280919061267a565b61086f565b005b34801561029357600080fd5b506102ae60048036038101906102a991906122d4565b61097a565b6040516102bb91906126fd565b60405180910390f35b3480156102d057600080fd5b506102d9610a1d565b005b3480156102e757600080fd5b5061030260048036038101906102fd91906123ee565b610a31565b60405161030f91906126fd565b60405180910390f35b610332600480360381019061032d9190612718565b610a49565b60405161033f9190612434565b60405180910390f35b34801561035457600080fd5b5061035d610a60565b60405161036a919061277a565b60405180910390f35b34801561037f57600080fd5b50610388610a8a565b60405161039591906127b6565b60405180910390f35b3480156103aa57600080fd5b506103b3610aae565b6040516103c091906126fd565b60405180910390f35b3480156103d557600080fd5b506103f060048036038101906103eb9190612827565b610ab4565b005b3480156103fe57600080fd5b5061041960048036038101906104149190612874565b610b33565b005b34801561042757600080fd5b50610430610b49565b60405161043d91906128d5565b60405180910390f35b34801561045257600080fd5b5061045b610b6f565b6040516104689190612911565b60405180910390f35b34801561047d57600080fd5b50610498600480360381019061049391906129d8565b610b95565b005b3480156104a657600080fd5b506104c160048036038101906104bc91906122d4565b610c5e565b005b3480156104cf57600080fd5b506104ea60048036038101906104e591906123ee565b610c72565b6040516104f791906126fd565b60405180910390f35b34801561050c57600080fd5b50610527600480360381019061052291906122d4565b610d38565b005b34801561053557600080fd5b50610550600480360381019061054b91906122d4565b610dbb565b005b61056c60048036038101906105679190612a59565b610dcf565b6040516105799190612434565b60405180910390f35b61058a610e66565b61059381610ee4565b50565b60006105a5838387878a610fea565b9050600073ffffffffffffffffffffffffffffffffffffffff1660ce600083815260200190815260200160002060009054906101000a900473ffffffffffffffffffffffffffffffffffffffff1673ffffffffffffffffffffffffffffffffffffffff1614610649576040517f08c379a000000000000000000000000000000000000000000000000000000000815260040161064090612b1d565b60405180910390fd5b3360ce600083815260200190815260200160002060006101000a81548173ffffffffffffffffffffffffffffffffffffffff021916908373ffffffffffffffffffffffffffffffffffffffff1602179055506106b03385876106ab9190612b6c565b611026565b6106c58685876106c09190612b6c565b611077565b505050505050565b6000806106ea8363ffffffff1660986110c690919063ffffffff16565b91505080915050919050565b606660009054906101000a900473ffffffffffffffffffffffffffffffffffffffff1681565b606061072860986110ed565b905090565b60008060019054906101000a900460ff1615905080801561075e5750600160008054906101000a900460ff1660ff16105b8061078b575061076d306111b6565b15801561078a5750600160008054906101000a900460ff1660ff16145b5b6107ca576040517f08c379a00000000000000000000000000000000000000000000000000000000081526004016107c190612c12565b60405180910390fd5b60016000806101000a81548160ff021916908360ff1602179055508015610807576001600060016101000a81548160ff0219169083151502179055505b61081183836111d9565b801561086a5760008060016101000a81548160ff0219169083151502179055507f7f26b83ff96e1f2b6a682f133852f6798a09c465da95921460cefb384740249860016040516108619190612c7a565b60405180910390a15b505050565b606560009054906101000a900473ffffffffffffffffffffffffffffffffffffffff1673ffffffffffffffffffffffffffffffffffffffff163373ffffffffffffffffffffffffffffffffffffffff16146108ff576040517f08c379a00000000000000000000000000000000000000000000000000000000081526004016108f690612ce1565b60405180910390fd5b838361090b828261123e565b60405180608001604052806043815260200161379e6043913990610965576040517f08c379a000000000000000000000000000000000000000000000000000000000815260040161095c9190612d80565b60405180910390fd5b5061097286868686611253565b505050505050565b60007f000000000000000000000000000000000000000000000000000000000000000073ffffffffffffffffffffffffffffffffffffffff166370a08231836040518263ffffffff1660e01b81526004016109d5919061277a565b602060405180830381865afa1580156109f2573d6000803e3d6000fd5b505050506040513d601f19601f82011682018060405250810190610a169190612db7565b9050919050565b610a25610e66565b610a2f6000611265565b565b60cc6020528060005260406000206000915090505481565b6000610a578484843461132b565b90509392505050565b6000603360009054906101000a900473ffffffffffffffffffffffffffffffffffffffff16905090565b7f000000000000000000000000000000000000000000000000000000000000000081565b60cd5481565b610abc610e66565b60005b82829050811015610b2e57610b1a838383818110610ae057610adf612de4565b5b9050604002016000016020810190610af891906123ee565b848484818110610b0b57610b0a612de4565b5b90506040020160200135611399565b600181610b279190612e13565b9050610abf565b505050565b610b3b610e66565b610b4582826113ff565b5050565b606560009054906101000a900473ffffffffffffffffffffffffffffffffffffffff1681565b606760009054906101000a900473ffffffffffffffffffffffffffffffffffffffff1681565b610b9d610e66565b818190508484905014610be5576040517f08c379a0000000000000000000000000000000000000000000000000000000008152600401610bdc90612e93565b60405180910390fd5b600084849050905060005b81811015610c5657610c42868683818110610c0e57610c0d612de4565b5b9050602002016020810190610c2391906123ee565b858584818110610c3657610c35612de4565b5b905060200201356113ff565b600181610c4f9190612e13565b9050610bf0565b505050505050565b610c66610e66565b610c6f8161145d565b50565b6000606660009054906101000a900473ffffffffffffffffffffffffffffffffffffffff1673ffffffffffffffffffffffffffffffffffffffff1663a69297938360cc60008663ffffffff1663ffffffff168152602001908152602001600020546040518363ffffffff1660e01b8152600401610cf0929190612ec2565b602060405180830381865afa158015610d0d573d6000803e3d6000fd5b505050506040513d601f19601f82011682018060405250810190610d319190612db7565b9050919050565b610d40610e66565b600073ffffffffffffffffffffffffffffffffffffffff168173ffffffffffffffffffffffffffffffffffffffff1603610daf576040517f08c379a0000000000000000000000000000000000000000000000000000000008152600401610da690612f5d565b60405180910390fd5b610db881611265565b50565b610dc3610e66565b610dcc8161152e565b50565b60008060cd549050600181610de49190612e13565b60cd819055506000610e038585600185610dfe9190612e13565b6115ff565b9050610e1b87610e14888885611636565b3433611665565b9250858763ffffffff167fd229aacb94204188fe8042965fa6b269c62dc5818b21238779ab64bdd17efeec87604051610e5491906126fd565b60405180910390a35050949350505050565b610e6e61169d565b73ffffffffffffffffffffffffffffffffffffffff16610e8c610a60565b73ffffffffffffffffffffffffffffffffffffffff1614610ee2576040517f08c379a0000000000000000000000000000000000000000000000000000000008152600401610ed990612fc9565b60405180910390fd5b565b600073ffffffffffffffffffffffffffffffffffffffff168173ffffffffffffffffffffffffffffffffffffffff161480610f245750610f23816116a5565b5b610f63576040517f08c379a0000000000000000000000000000000000000000000000000000000008152600401610f5a90613035565b60405180910390fd5b80606760006101000a81548173ffffffffffffffffffffffffffffffffffffffff021916908373ffffffffffffffffffffffffffffffffffffffff1602179055508073ffffffffffffffffffffffffffffffffffffffff167ffec811ed4e60aebdaf7a79cad8a97196bf56e35362f039705598226d30c9d24860405160405180910390a250565b600085858585856040516020016110059594939291906130f4565b60405160208183030381529060405280519060200120905095945050505050565b6110738230837f000000000000000000000000000000000000000000000000000000000000000073ffffffffffffffffffffffffffffffffffffffff166116c8909392919063ffffffff16565b5050565b6110c282827f000000000000000000000000000000000000000000000000000000000000000073ffffffffffffffffffffffffffffffffffffffff166117519092919063ffffffff16565b5050565b6000806110e28360001b856000016117d790919063ffffffff16565b915091509250929050565b606060006110fa83611826565b9050805167ffffffffffffffff81111561111757611116613153565b5b6040519080825280602002602001820160405280156111455781602001602082028036833780820191505090505b50915060005b81518110156111af5781818151811061116757611166612de4565b5b602002602001015183828151811061118257611181612de4565b5b602002602001019063ffffffff16908163ffffffff168152505080806111a790613182565b91505061114b565b5050919050565b6000808273ffffffffffffffffffffffffffffffffffffffff163b119050919050565b600060019054906101000a900460ff16611228576040517f08c379a000000000000000000000000000000000000000000000000000000000815260040161121f9061323c565b60405180910390fd5b6112318161145d565b61123a826118e3565b5050565b60008161124a846106cd565b14905092915050565b61125f84848484611946565b50505050565b6000603360009054906101000a900473ffffffffffffffffffffffffffffffffffffffff16905081603360006101000a81548173ffffffffffffffffffffffffffffffffffffffff021916908373ffffffffffffffffffffffffffffffffffffffff1602179055508173ffffffffffffffffffffffffffffffffffffffff168173ffffffffffffffffffffffffffffffffffffffff167f8be0079c531659141344cd1fd0a4f28419497f9722a3daafe3b4186f6b6457e060405160405180910390a35050565b600080611337846119d1565b905061134f86611348878785611636565b8533611665565b9150848663ffffffff167fd229aacb94204188fe8042965fa6b269c62dc5818b21238779ab64bdd17efeec8660405161138891906126fd565b60405180910390a350949350505050565b8060cc60008463ffffffff1663ffffffff168152602001908152602001600020819055508163ffffffff167f90563f253ecb04527a6a7ae1a8cbe2bdc6caefb39d5f7b06a973cf5e7f8035a4826040516113f391906126fd565b60405180910390a25050565b61141b8263ffffffff16826098611a379092919063ffffffff16565b8163ffffffff167f97fd51fef1f80c854cbd0150c248e8b2ac4ecdc97cc05e742b5f61c9f4dc6458826040516114519190612434565b60405180910390a25050565b80611467816116a5565b6114a6576040517f08c379a000000000000000000000000000000000000000000000000000000000815260040161149d90613035565b60405180910390fd5b81606660006101000a81548173ffffffffffffffffffffffffffffffffffffffff021916908373ffffffffffffffffffffffffffffffffffffffff1602179055508173ffffffffffffffffffffffffffffffffffffffff167fb87f5a0bface22cde699143559fb99f990ae54eea236995fc54178af91af859f60405160405180910390a25050565b80611538816116a5565b611577576040517f08c379a000000000000000000000000000000000000000000000000000000000815260040161156e90613035565b60405180910390fd5b81606560006101000a81548173ffffffffffffffffffffffffffffffffffffffff021916908373ffffffffffffffffffffffffffffffffffffffff1602179055508173ffffffffffffffffffffffffffffffffffffffff167f7a61e573722ff8b205c8962b59d37e7d30573f368965597a844a94872204ebd760405160405180910390a25050565b606061160b3385611026565b828260405160200161161e92919061325c565b60405160208183030381529060405290509392505050565b606083838360405160200161164d939291906132ed565b60405160208183030381529060405290509392505050565b6000611693858560cc60008963ffffffff1663ffffffff168152602001908152602001600020548686611a58565b9050949350505050565b600033905090565b6000808273ffffffffffffffffffffffffffffffffffffffff163b119050919050565b61174b846323b872dd60e01b8585856040516024016116e993929190613326565b604051602081830303815290604052907bffffffffffffffffffffffffffffffffffffffffffffffffffffffff19166020820180517bffffffffffffffffffffffffffffffffffffffffffffffffffffffff8381831617835250505050611b03565b50505050565b6117d28363a9059cbb60e01b848460405160240161177092919061335d565b604051602081830303815290604052907bffffffffffffffffffffffffffffffffffffffffffffffffffffffff19166020820180517bffffffffffffffffffffffffffffffffffffffffffffffffffffffff8381831617835250505050611b03565b505050565b60008060008460020160008581526020019081526020016000205490506000801b8103611816576118088585611bca565b6000801b925092505061181f565b60018192509250505b9250929050565b6060600061183683600001611bea565b90508067ffffffffffffffff81111561185257611851613153565b5b6040519080825280602002602001820160405280156118805781602001602082028036833780820191505090505b50915060005b818110156118dc576118a78185600001600001611bff90919063ffffffff16565b60001c8382815181106118bd576118bc612de4565b5b60200260200101818152505080806118d490613182565b915050611886565b5050919050565b600060019054906101000a900460ff16611932576040517f08c379a00000000000000000000000000000000000000000000000000000000081526004016119299061323c565b60405180910390fd5b61193b8161152e565b611943611c16565b50565b60006119528383611c6f565b905060006119608484611c98565b905036600061196f8686611cc4565b9150915061198861197f85611ce5565b848a8585611cf2565b838863ffffffff167fba20947a325f450d232530e5f5fce293e7963499d5309a07cee84a269f2f15a6856040516119bf91906126fd565b60405180910390a35050505050505050565b6060611a203330847f000000000000000000000000000000000000000000000000000000000000000073ffffffffffffffffffffffffffffffffffffffff166116c8909392919063ffffffff16565b604051806020016040528060008152509050919050565b611a528260001b8285600001611d159092919063ffffffff16565b50505050565b6000611a648686611d50565b9050606660009054906101000a900473ffffffffffffffffffffffffffffffffffffffff1673ffffffffffffffffffffffffffffffffffffffff166311bf2c1884838988876040518663ffffffff1660e01b8152600401611ac89493929190613386565b6000604051808303818588803b158015611ae157600080fd5b505af1158015611af5573d6000803e3d6000fd5b505050505095945050505050565b6000611b65826040518060400160405280602081526020017f5361666545524332303a206c6f772d6c6576656c2063616c6c206661696c65648152508573ffffffffffffffffffffffffffffffffffffffff16611e099092919063ffffffff16565b9050600081511115611bc55780806020019051810190611b859190613403565b611bc4576040517f08c379a0000000000000000000000000000000000000000000000000000000008152600401611bbb906134a2565b60405180910390fd5b5b505050565b6000611be28284600001611e2190919063ffffffff16565b905092915050565b6000611bf882600001611e38565b9050919050565b6000611c0e8360000183611e4d565b905092915050565b600060019054906101000a900460ff16611c65576040517f08c379a0000000000000000000000000000000000000000000000000000000008152600401611c5c9061323c565b60405180910390fd5b611c6d611e78565b565b60008282600090602092611c85939291906134cc565b90611c90919061351f565b905092915050565b60008282602090604092611cae939291906134cc565b90611cb9919061351f565b60001c905092915050565b36600083836040908092611cda939291906134cc565b915091509250929050565b60008160001c9050919050565b6000611d018686868686611ed9565b9050611d0d8186611077565b505050505050565b60008184600201600085815260200190815260200160002081905550611d478385600001611f9690919063ffffffff16565b90509392505050565b600080611d5c84611fad565b9050606560009054906101000a900473ffffffffffffffffffffffffffffffffffffffff1673ffffffffffffffffffffffffffffffffffffffff1663fa31de018583866040518463ffffffff1660e01b8152600401611dbd939291906135c8565b6020604051808303816000875af1158015611ddc573d6000803e3d6000fd5b505050506040513d601f19601f82011682018060405250810190611e00919061361b565b91505092915050565b6060611e188484600085612036565b90509392505050565b6000611e308360000183612103565b905092915050565b6000611e4682600001612126565b9050919050565b6000826000018281548110611e6557611e64612de4565b5b9060005260206000200154905092915050565b600060019054906101000a900460ff16611ec7576040517f08c379a0000000000000000000000000000000000000000000000000000000008152600401611ebe9061323c565b60405180910390fd5b611ed7611ed261169d565b611265565b565b6000808383905003611eed57859050611f8d565b6000808484810190611eff9190613648565b91509150600060ce6000611f1689858c888f610fea565b815260200190815260200160002060009054906101000a900473ffffffffffffffffffffffffffffffffffffffff169050600073ffffffffffffffffffffffffffffffffffffffff168173ffffffffffffffffffffffffffffffffffffffff1614611f8657809350505050611f8d565b8893505050505b95945050505050565b6000611fa58360000183612137565b905092915050565b6000806000611fcc8463ffffffff1660986110c690919063ffffffff16565b915091508160405180608001604052806043815260200161379e604391399061202b576040517f08c379a00000000000000000000000000000000000000000000000000000000081526004016120229190612d80565b60405180910390fd5b508092505050919050565b60608247101561207b576040517f08c379a0000000000000000000000000000000000000000000000000000000008152600401612072906136fa565b60405180910390fd5b6000808673ffffffffffffffffffffffffffffffffffffffff1685876040516120a4919061371a565b60006040518083038185875af1925050503d80600081146120e1576040519150601f19603f3d011682016040523d82523d6000602084013e6120e6565b606091505b50915091506120f7878383876121a7565b92505050949350505050565b600080836001016000848152602001908152602001600020541415905092915050565b600081600001805490509050919050565b60006121438383612103565b61219c5782600001829080600181540180825580915050600190039060005260206000200160009091909190915055826000018054905083600101600084815260200190815260200160002081905550600190506121a1565b600090505b92915050565b60608315612209576000835103612201576121c1856116a5565b612200576040517f08c379a00000000000000000000000000000000000000000000000000000000081526004016121f79061377d565b60405180910390fd5b5b829050612214565b612213838361221c565b5b949350505050565b60008251111561222f5781518083602001fd5b806040517f08c379a00000000000000000000000000000000000000000000000000000000081526004016122639190612d80565b60405180910390fd5b600080fd5b600080fd5b600073ffffffffffffffffffffffffffffffffffffffff82169050919050565b60006122a182612276565b9050919050565b6122b181612296565b81146122bc57600080fd5b50565b6000813590506122ce816122a8565b92915050565b6000602082840312156122ea576122e961226c565b5b60006122f8848285016122bf565b91505092915050565b6000819050919050565b61231481612301565b811461231f57600080fd5b50565b6000813590506123318161230b565b92915050565b600063ffffffff82169050919050565b61235081612337565b811461235b57600080fd5b50565b60008135905061236d81612347565b92915050565b600080600080600060a0868803121561238f5761238e61226c565b5b600061239d888289016122bf565b95505060206123ae88828901612322565b94505060406123bf88828901612322565b93505060606123d08882890161235e565b92505060806123e188828901612322565b9150509295509295909350565b6000602082840312156124045761240361226c565b5b60006124128482850161235e565b91505092915050565b6000819050919050565b61242e8161241b565b82525050565b60006020820190506124496000830184612425565b92915050565b6000819050919050565b600061247461246f61246a84612276565b61244f565b612276565b9050919050565b600061248682612459565b9050919050565b60006124988261247b565b9050919050565b6124a88161248d565b82525050565b60006020820190506124c3600083018461249f565b92915050565b600081519050919050565b600082825260208201905092915050565b6000819050602082019050919050565b6124fe81612337565b82525050565b600061251083836124f5565b60208301905092915050565b6000602082019050919050565b6000612534826124c9565b61253e81856124d4565b9350612549836124e5565b8060005b8381101561257a5781516125618882612504565b975061256c8361251c565b92505060018101905061254d565b5085935050505092915050565b600060208201905081810360008301526125a18184612529565b905092915050565b600080604083850312156125c0576125bf61226c565b5b60006125ce858286016122bf565b92505060206125df858286016122bf565b9150509250929050565b6125f28161241b565b81146125fd57600080fd5b50565b60008135905061260f816125e9565b92915050565b600080fd5b600080fd5b600080fd5b60008083601f84011261263a57612639612615565b5b8235905067ffffffffffffffff8111156126575761265661261a565b5b6020830191508360018202830111156126735761267261261f565b5b9250929050565b600080600080606085870312156126945761269361226c565b5b60006126a28782880161235e565b94505060206126b387828801612600565b935050604085013567ffffffffffffffff8111156126d4576126d3612271565b5b6126e087828801612624565b925092505092959194509250565b6126f781612301565b82525050565b600060208201905061271260008301846126ee565b92915050565b6000806000606084860312156127315761273061226c565b5b600061273f8682870161235e565b935050602061275086828701612600565b925050604061276186828701612322565b9150509250925092565b61277481612296565b82525050565b600060208201905061278f600083018461276b565b92915050565b60006127a08261247b565b9050919050565b6127b081612795565b82525050565b60006020820190506127cb60008301846127a7565b92915050565b60008083601f8401126127e7576127e6612615565b5b8235905067ffffffffffffffff8111156128045761280361261a565b5b6020830191508360408202830111156128205761281f61261f565b5b9250929050565b6000806020838503121561283e5761283d61226c565b5b600083013567ffffffffffffffff81111561285c5761285b612271565b5b612868858286016127d1565b92509250509250929050565b6000806040838503121561288b5761288a61226c565b5b60006128998582860161235e565b92505060206128aa85828601612600565b9150509250929050565b60006128bf8261247b565b9050919050565b6128cf816128b4565b82525050565b60006020820190506128ea60008301846128c6565b92915050565b60006128fb8261247b565b9050919050565b61290b816128f0565b82525050565b60006020820190506129266000830184612902565b92915050565b60008083601f84011261294257612941612615565b5b8235905067ffffffffffffffff81111561295f5761295e61261a565b5b60208301915083602082028301111561297b5761297a61261f565b5b9250929050565b60008083601f84011261299857612997612615565b5b8235905067ffffffffffffffff8111156129b5576129b461261a565b5b6020830191508360208202830111156129d1576129d061261f565b5b9250929050565b600080600080604085870312156129f2576129f161226c565b5b600085013567ffffffffffffffff811115612a1057612a0f612271565b5b612a1c8782880161292c565b9450945050602085013567ffffffffffffffff811115612a3f57612a3e612271565b5b612a4b87828801612982565b925092505092959194509250565b60008060008060808587031215612a7357612a7261226c565b5b6000612a818782880161235e565b9450506020612a9287828801612600565b9350506040612aa387828801612322565b9250506060612ab487828801612322565b91505092959194509250565b600082825260208201905092915050565b7f7265717565737420616c72656164792066696c6c656400000000000000000000600082015250565b6000612b07601683612ac0565b9150612b1282612ad1565b602082019050919050565b60006020820190508181036000830152612b3681612afa565b9050919050565b7f4e487b7100000000000000000000000000000000000000000000000000000000600052601160045260246000fd5b6000612b7782612301565b9150612b8283612301565b9250828203905081811115612b9a57612b99612b3d565b5b92915050565b7f496e697469616c697a61626c653a20636f6e747261637420697320616c72656160008201527f647920696e697469616c697a6564000000000000000000000000000000000000602082015250565b6000612bfc602e83612ac0565b9150612c0782612ba0565b604082019050919050565b60006020820190508181036000830152612c2b81612bef565b9050919050565b6000819050919050565b600060ff82169050919050565b6000612c64612c5f612c5a84612c32565b61244f565b612c3c565b9050919050565b612c7481612c49565b82525050565b6000602082019050612c8f6000830184612c6b565b92915050565b7f216d61696c626f78000000000000000000000000000000000000000000000000600082015250565b6000612ccb600883612ac0565b9150612cd682612c95565b602082019050919050565b60006020820190508181036000830152612cfa81612cbe565b9050919050565b600081519050919050565b60005b83811015612d2a578082015181840152602081019050612d0f565b60008484015250505050565b6000601f19601f8301169050919050565b6000612d5282612d01565b612d5c8185612ac0565b9350612d6c818560208601612d0c565b612d7581612d36565b840191505092915050565b60006020820190508181036000830152612d9a8184612d47565b905092915050565b600081519050612db18161230b565b92915050565b600060208284031215612dcd57612dcc61226c565b5b6000612ddb84828501612da2565b91505092915050565b7f4e487b7100000000000000000000000000000000000000000000000000000000600052603260045260246000fd5b6000612e1e82612301565b9150612e2983612301565b9250828201905080821115612e4157612e40612b3d565b5b92915050565b7f216c656e67746800000000000000000000000000000000000000000000000000600082015250565b6000612e7d600783612ac0565b9150612e8882612e47565b602082019050919050565b60006020820190508181036000830152612eac81612e70565b9050919050565b612ebc81612337565b82525050565b6000604082019050612ed76000830185612eb3565b612ee460208301846126ee565b9392505050565b7f4f776e61626c653a206e6577206f776e657220697320746865207a65726f206160008201527f6464726573730000000000000000000000000000000000000000000000000000602082015250565b6000612f47602683612ac0565b9150612f5282612eeb565b604082019050919050565b60006020820190508181036000830152612f7681612f3a565b9050919050565b7f4f776e61626c653a2063616c6c6572206973206e6f7420746865206f776e6572600082015250565b6000612fb3602083612ac0565b9150612fbe82612f7d565b602082019050919050565b60006020820190508181036000830152612fe281612fa6565b9050919050565b7f21636f6e74726163740000000000000000000000000000000000000000000000600082015250565b600061301f600983612ac0565b915061302a82612fe9565b602082019050919050565b6000602082019050818103600083015261304e81613012565b9050919050565b60008160e01b9050919050565b600061306d82613055565b9050919050565b61308561308082612337565b613062565b82525050565b6000819050919050565b6130a66130a182612301565b61308b565b82525050565b60008160601b9050919050565b60006130c4826130ac565b9050919050565b60006130d6826130b9565b9050919050565b6130ee6130e982612296565b6130cb565b82525050565b60006131008288613074565b6004820191506131108287613095565b6020820191506131208286613095565b6020820191506131308285613095565b60208201915061314082846130dd565b6014820191508190509695505050505050565b7f4e487b7100000000000000000000000000000000000000000000000000000000600052604160045260246000fd5b600061318d82612301565b91507fffffffffffffffffffffffffffffffffffffffffffffffffffffffffffffffff82036131bf576131be612b3d565b5b600182019050919050565b7f496e697469616c697a61626c653a20636f6e7472616374206973206e6f74206960008201527f6e697469616c697a696e67000000000000000000000000000000000000000000602082015250565b6000613226602b83612ac0565b9150613231826131ca565b604082019050919050565b6000602082019050818103600083015261325581613219565b9050919050565b600060408201905061327160008301856126ee565b61327e60208301846126ee565b9392505050565b6000819050919050565b6132a061329b8261241b565b613285565b82525050565b600081519050919050565b600081905092915050565b60006132c7826132a6565b6132d181856132b1565b93506132e1818560208601612d0c565b80840191505092915050565b60006132f9828661328f565b6020820191506133098285613095565b60208201915061331982846132bc565b9150819050949350505050565b600060608201905061333b600083018661276b565b613348602083018561276b565b61335560408301846126ee565b949350505050565b6000604082019050613372600083018561276b565b61337f60208301846126ee565b9392505050565b600060808201905061339b6000830187612425565b6133a86020830186612eb3565b6133b560408301856126ee565b6133c2606083018461276b565b95945050505050565b60008115159050919050565b6133e0816133cb565b81146133eb57600080fd5b50565b6000815190506133fd816133d7565b92915050565b6000602082840312156134195761341861226c565b5b6000613427848285016133ee565b91505092915050565b7f5361666545524332303a204552433230206f7065726174696f6e20646964206e60008201527f6f74207375636365656400000000000000000000000000000000000000000000602082015250565b600061348c602a83612ac0565b915061349782613430565b604082019050919050565b600060208201905081810360008301526134bb8161347f565b9050919050565b600080fd5b600080fd5b600080858511156134e0576134df6134c2565b5b838611156134f1576134f06134c7565b5b6001850283019150848603905094509492505050565b600082905092915050565b600082821b905092915050565b600061352b8383613507565b82613536813561241b565b92506020821015613576576135717fffffffffffffffffffffffffffffffffffffffffffffffffffffffffffffffff83602003600802613512565b831692505b505092915050565b600082825260208201905092915050565b600061359a826132a6565b6135a4818561357e565b93506135b4818560208601612d0c565b6135bd81612d36565b840191505092915050565b60006060820190506135dd6000830186612eb3565b6135ea6020830185612425565b81810360408301526135fc818461358f565b9050949350505050565b600081519050613615816125e9565b92915050565b6000602082840312156136315761363061226c565b5b600061363f84828501613606565b91505092915050565b6000806040838503121561365f5761365e61226c565b5b600061366d85828601612322565b925050602061367e85828601612322565b9150509250929050565b7f416464726573733a20696e73756666696369656e742062616c616e636520666f60008201527f722063616c6c0000000000000000000000000000000000000000000000000000602082015250565b60006136e4602683612ac0565b91506136ef82613688565b604082019050919050565b60006020820190508181036000830152613713816136d7565b9050919050565b600061372682846132bc565b915081905092915050565b7f416464726573733a2063616c6c20746f206e6f6e2d636f6e7472616374000000600082015250565b6000613767601d83612ac0565b915061377282613731565b602082019050919050565b600060208201905081810360008301526137968161375a565b905091905056fe4e6f20726f7574657220656e726f6c6c656420666f7220646f6d61696e2e2044696420796f7520737065636966792074686520726967687420646f6d61696e2049443fa264697066735822122048e10fbf91a17d3effb0a6bf13995a021d36b0f7daf36b98abbac58bd43f7a9964736f6c63430008100033",
  "linkReferences": {},
  "deployedLinkReferences": {}
}