{
  "_format": "hh-sol-artifact-1",
  "contractName": "Mailbox",
  "sourceName": "contracts/Mailbox.sol",
  "abi": [
    {
      "inputs": [
        {
          "internalType": "uint32",
          "name": "_localDomain",
          "type": "uint32"
        }
      ],
      "stateMutability": "nonpayable",
      "type": "constructor"
    },
    {
      "anonymous": false,
      "inputs": [
        {
          "indexed": true,
          "internalType": "address",
          "name": "module",
          "type": "address"
        }
      ],
      "name": "DefaultIsmSet",
      "type": "event"
    },
    {
      "anonymous": false,
      "inputs": [
        {
          "indexed": true,
          "internalType": "address",
          "name": "sender",
          "type": "address"
        },
        {
          "indexed": true,
          "internalType": "uint32",
          "name": "destination",
          "type": "uint32"
        },
        {
          "indexed": true,
          "internalType": "bytes32",
          "name": "recipient",
          "type": "bytes32"
        },
        {
          "indexed": false,
          "internalType": "bytes",
          "name": "message",
          "type": "bytes"
        }
      ],
      "name": "Dispatch",
      "type": "event"
    },
    {
      "anonymous": false,
      "inputs": [
        {
          "indexed": true,
          "internalType": "bytes32",
          "name": "messageId",
          "type": "bytes32"
        }
      ],
      "name": "DispatchId",
      "type": "event"
    },
    {
      "anonymous": false,
      "inputs": [
        {
          "indexed": false,
          "internalType": "uint8",
          "name": "version",
          "type": "uint8"
        }
      ],
      "name": "Initialized",
      "type": "event"
    },
    {
      "anonymous": false,
      "inputs": [
        {
          "indexed": true,
          "internalType": "address",
          "name": "previousOwner",
          "type": "address"
        },
        {
          "indexed": true,
          "internalType": "address",
          "name": "newOwner",
          "type": "address"
        }
      ],
      "name": "OwnershipTransferred",
      "type": "event"
    },
    {
      "anonymous": false,
      "inputs": [],
      "name": "Paused",
      "type": "event"
    },
    {
      "anonymous": false,
      "inputs": [
        {
          "indexed": true,
          "internalType": "uint32",
          "name": "origin",
          "type": "uint32"
        },
        {
          "indexed": true,
          "internalType": "bytes32",
          "name": "sender",
          "type": "bytes32"
        },
        {
          "indexed": true,
          "internalType": "address",
          "name": "recipient",
          "type": "address"
        }
      ],
      "name": "Process",
      "type": "event"
    },
    {
      "anonymous": false,
      "inputs": [
        {
          "indexed": true,
          "internalType": "bytes32",
          "name": "messageId",
          "type": "bytes32"
        }
      ],
      "name": "ProcessId",
      "type": "event"
    },
    {
      "anonymous": false,
      "inputs": [],
      "name": "Unpaused",
      "type": "event"
    },
    {
      "inputs": [],
      "name": "MAX_MESSAGE_BODY_BYTES",
      "outputs": [
        {
          "internalType": "uint256",
          "name": "",
          "type": "uint256"
        }
      ],
      "stateMutability": "view",
      "type": "function"
    },
    {
      "inputs": [],
      "name": "VERSION",
      "outputs": [
        {
          "internalType": "uint8",
          "name": "",
          "type": "uint8"
        }
      ],
      "stateMutability": "view",
      "type": "function"
    },
    {
      "inputs": [],
      "name": "count",
      "outputs": [
        {
          "internalType": "uint32",
          "name": "",
          "type": "uint32"
        }
      ],
      "stateMutability": "view",
      "type": "function"
    },
    {
      "inputs": [],
      "name": "defaultIsm",
      "outputs": [
        {
          "internalType": "contract IInterchainSecurityModule",
          "name": "",
          "type": "address"
        }
      ],
      "stateMutability": "view",
      "type": "function"
    },
    {
      "inputs": [
        {
          "internalType": "bytes32",
          "name": "",
          "type": "bytes32"
        }
      ],
      "name": "delivered",
      "outputs": [
        {
          "internalType": "bool",
          "name": "",
          "type": "bool"
        }
      ],
      "stateMutability": "view",
      "type": "function"
    },
    {
      "inputs": [
        {
          "internalType": "uint32",
          "name": "_destinationDomain",
          "type": "uint32"
        },
        {
          "internalType": "bytes32",
          "name": "_recipientAddress",
          "type": "bytes32"
        },
        {
          "internalType": "bytes",
          "name": "_messageBody",
          "type": "bytes"
        }
      ],
      "name": "dispatch",
      "outputs": [
        {
          "internalType": "bytes32",
          "name": "",
          "type": "bytes32"
        }
      ],
      "stateMutability": "nonpayable",
      "type": "function"
    },
    {
      "inputs": [
        {
          "internalType": "address",
          "name": "_owner",
          "type": "address"
        },
        {
          "internalType": "address",
          "name": "_defaultIsm",
          "type": "address"
        }
      ],
      "name": "initialize",
      "outputs": [],
      "stateMutability": "nonpayable",
      "type": "function"
    },
    {
      "inputs": [],
      "name": "isPaused",
      "outputs": [
        {
          "internalType": "bool",
          "name": "",
          "type": "bool"
        }
      ],
      "stateMutability": "view",
      "type": "function"
    },
    {
      "inputs": [],
      "name": "latestCheckpoint",
      "outputs": [
        {
          "internalType": "bytes32",
          "name": "",
          "type": "bytes32"
        },
        {
          "internalType": "uint32",
          "name": "",
          "type": "uint32"
        }
      ],
      "stateMutability": "view",
      "type": "function"
    },
    {
      "inputs": [],
      "name": "localDomain",
      "outputs": [
        {
          "internalType": "uint32",
          "name": "",
          "type": "uint32"
        }
      ],
      "stateMutability": "view",
      "type": "function"
    },
    {
      "inputs": [],
      "name": "owner",
      "outputs": [
        {
          "internalType": "address",
          "name": "",
          "type": "address"
        }
      ],
      "stateMutability": "view",
      "type": "function"
    },
    {
      "inputs": [],
      "name": "pause",
      "outputs": [],
      "stateMutability": "nonpayable",
      "type": "function"
    },
    {
      "inputs": [
        {
          "internalType": "bytes",
          "name": "_metadata",
          "type": "bytes"
        },
        {
          "internalType": "bytes",
          "name": "_message",
          "type": "bytes"
        }
      ],
      "name": "process",
      "outputs": [],
      "stateMutability": "nonpayable",
      "type": "function"
    },
    {
      "inputs": [
        {
          "internalType": "address",
          "name": "_recipient",
          "type": "address"
        }
      ],
      "name": "recipientIsm",
      "outputs": [
        {
          "internalType": "contract IInterchainSecurityModule",
          "name": "",
          "type": "address"
        }
      ],
      "stateMutability": "view",
      "type": "function"
    },
    {
      "inputs": [],
      "name": "renounceOwnership",
      "outputs": [],
      "stateMutability": "nonpayable",
      "type": "function"
    },
    {
      "inputs": [],
      "name": "root",
      "outputs": [
        {
          "internalType": "bytes32",
          "name": "",
          "type": "bytes32"
        }
      ],
      "stateMutability": "view",
      "type": "function"
    },
    {
      "inputs": [
        {
          "internalType": "address",
          "name": "_module",
          "type": "address"
        }
      ],
      "name": "setDefaultIsm",
      "outputs": [],
      "stateMutability": "nonpayable",
      "type": "function"
    },
    {
      "inputs": [
        {
          "internalType": "address",
          "name": "newOwner",
          "type": "address"
        }
      ],
      "name": "transferOwnership",
      "outputs": [],
      "stateMutability": "nonpayable",
      "type": "function"
    },
    {
      "inputs": [],
      "name": "tree",
      "outputs": [
        {
          "internalType": "uint256",
          "name": "count",
          "type": "uint256"
        }
      ],
      "stateMutability": "view",
      "type": "function"
    },
    {
      "inputs": [],
      "name": "unpause",
      "outputs": [],
      "stateMutability": "nonpayable",
      "type": "function"
    }
  ],
  "bytecode": "0x60a060405234801561001057600080fd5b5060405162002229380380620022298339810160408190526100319161003f565b63ffffffff1660805261006c565b60006020828403121561005157600080fd5b815163ffffffff8116811461006557600080fd5b9392505050565b6080516121936200009660003960008181610230015281816106300152610d0501526121936000f3fe608060405234801561001057600080fd5b506004361061016c5760003560e01c8063907c0f92116100cd578063f2fde38b11610081578063fa31de0111610066578063fa31de011461030e578063fd54b22814610321578063ffa1ad741461032b57600080fd5b8063f2fde38b146102e8578063f794687a146102fb57600080fd5b8063e495f1d4116100b2578063e495f1d4146102aa578063e70f48ac146102cd578063ebf0c717146102e057600080fd5b8063907c0f9214610270578063b187bd261461029257600080fd5b8063715018a6116101245780638456cb59116101095780638456cb59146102235780638d3638f41461022b5780638da5cb5b1461025257600080fd5b8063715018a6146102085780637c39d1301461021057600080fd5b8063485cc95511610155578063485cc95514610199578063522ae002146101ac5780636e5f516e146101c357600080fd5b806306661abd146101715780633f4ba83a1461018f575b600080fd5b60b8545b60405163ffffffff90911681526020015b60405180910390f35b610197610345565b005b6101976101a7366004611a93565b610380565b6101b561080081565b604051908152602001610186565b6097546101e39073ffffffffffffffffffffffffffffffffffffffff1681565b60405173ffffffffffffffffffffffffffffffffffffffff9091168152602001610186565b610197610533565b61019761021e366004611b0e565b610547565b6101976109fa565b6101757f000000000000000000000000000000000000000000000000000000000000000081565b60335473ffffffffffffffffffffffffffffffffffffffff166101e3565b610278610a35565b6040805192835263ffffffff909116602083015201610186565b61029a610a5d565b6040519015158152602001610186565b61029a6102b8366004611b7a565b60b96020526000908152604090205460ff1681565b6101e36102db366004611b93565b610a70565b6101b5610b3e565b6101976102f6366004611b93565b610b4a565b610197610309366004611b93565b610c01565b6101b561031c366004611bb0565b610c12565b60b8546101b59081565b610333600081565b60405160ff9091168152602001610186565b61034d610dce565b610355610e4f565b6040517fa45f47fdea8a1efdd9029a5691c7f759c32b7c698632b563573e155625d1693390600090a1565b600054610100900460ff16158080156103a05750600054600160ff909116105b806103ba5750303b1580156103ba575060005460ff166001145b61044b576040517f08c379a000000000000000000000000000000000000000000000000000000000815260206004820152602e60248201527f496e697469616c697a61626c653a20636f6e747261637420697320616c72656160448201527f647920696e697469616c697a656400000000000000000000000000000000000060648201526084015b60405180910390fd5b600080547fffffffffffffffffffffffffffffffffffffffffffffffffffffffffffffff0016600117905580156104a957600080547fffffffffffffffffffffffffffffffffffffffffffffffffffffffffffff00ff166101001790555b6104b1610ec2565b6104b9610f59565b6104c283610b4a565b6104cb82610ff8565b801561052e57600080547fffffffffffffffffffffffffffffffffffffffffffffffffffffffffffff00ff169055604051600181527f7f26b83ff96e1f2b6a682f133852f6798a09c465da95921460cefb38474024989060200160405180910390a15b505050565b61053b610dce565b61054560006110e5565b565b6001606554146105b3576040517f08c379a000000000000000000000000000000000000000000000000000000000815260206004820152601a60248201527f7265656e7472616e742063616c6c20286f7220706175736564290000000000006044820152606401610442565b600060658190556105c4838361115c565b60ff161461062e576040517f08c379a000000000000000000000000000000000000000000000000000000000815260206004820152600860248201527f2176657273696f6e0000000000000000000000000000000000000000000000006044820152606401610442565b7f000000000000000000000000000000000000000000000000000000000000000063ffffffff1661065f8383611180565b63ffffffff16146106cc576040517f08c379a000000000000000000000000000000000000000000000000000000000815260206004820152600c60248201527f2164657374696e6174696f6e00000000000000000000000000000000000000006044820152606401610442565b600061070d83838080601f0160208091040260200160405190810160405280939291908181526020018383808284376000920191909152506111a392505050565b600081815260b9602052604090205490915060ff1615610789576040517f08c379a000000000000000000000000000000000000000000000000000000000815260206004820152600960248201527f64656c69766572656400000000000000000000000000000000000000000000006044820152606401610442565b600081815260b96020526040812080547fffffffffffffffffffffffffffffffffffffffffffffffffffffffffffffff001660011790556107cd6102db85856111ae565b6040517ff7e83aee00000000000000000000000000000000000000000000000000000000815290915073ffffffffffffffffffffffffffffffffffffffff82169063f7e83aee90610828908990899089908990600401611c52565b6020604051808303816000875af1158015610847573d6000803e3d6000fd5b505050506040513d601f19601f8201168201806040525081019061086b9190611c84565b6108d1576040517f08c379a000000000000000000000000000000000000000000000000000000000815260206004820152600760248201527f216d6f64756c65000000000000000000000000000000000000000000000000006044820152606401610442565b60006108dd85856111c7565b905060006108eb86866111d7565b905060006108f987876111ae565b90508073ffffffffffffffffffffffffffffffffffffffff166356d5d47584846109238b8b6111f0565b6040518563ffffffff1660e01b81526004016109429493929190611ca6565b600060405180830381600087803b15801561095c57600080fd5b505af1158015610970573d6000803e3d6000fd5b505050508073ffffffffffffffffffffffffffffffffffffffff16828463ffffffff167f0d381c2a574ae8f04e213db7cfb4df8df712cdbd427d9868ffef380660ca657460405160405180910390a460405185907f1cae38cdd3d3919489272725a5ae62a4f48b2989b0dae843d3c279fee18073a990600090a25050600160655550505050505050565b610a02610dce565b610a0a61120c565b6040517f9e87fac88ff661f02d44f95383c817fece4bce600a3dab7a54406878b965e75290600090a1565b600080610a40610b3e565b6001610a4b60b85490565b610a559190611d05565b915091509091565b6000610a6b60655460021490565b905090565b60008173ffffffffffffffffffffffffffffffffffffffff1663de523cf36040518163ffffffff1660e01b8152600401602060405180830381865afa925050508015610af7575060408051601f3d9081017fffffffffffffffffffffffffffffffffffffffffffffffffffffffffffffffe0168201909252610af491810190611d29565b60015b15610b205773ffffffffffffffffffffffffffffffffffffffff811615610b1e5792915050565b505b505060975473ffffffffffffffffffffffffffffffffffffffff1690565b6000610a6b609861127f565b610b52610dce565b73ffffffffffffffffffffffffffffffffffffffff8116610bf5576040517f08c379a000000000000000000000000000000000000000000000000000000000815260206004820152602660248201527f4f776e61626c653a206e6577206f776e657220697320746865207a65726f206160448201527f64647265737300000000000000000000000000000000000000000000000000006064820152608401610442565b610bfe816110e5565b50565b610c09610dce565b610bfe81610ff8565b6000610c2060655460021490565b15610c87576040517f08c379a000000000000000000000000000000000000000000000000000000000815260206004820152600660248201527f70617573656400000000000000000000000000000000000000000000000000006044820152606401610442565b610800821115610cf3576040517f08c379a000000000000000000000000000000000000000000000000000000000815260206004820152600c60248201527f6d736720746f6f206c6f6e6700000000000000000000000000000000000000006044820152606401610442565b6000610d2e6000610d0360b85490565b7f0000000000000000000000000000000000000000000000000000000000000000338a8a8a8a611292565b80516020820120909150610d436098826112d0565b858763ffffffff163373ffffffffffffffffffffffffffffffffffffffff167f769f711d20c679153d382254f59892613b58a97cc876b249134ac25c80f9c81485604051610d919190611d46565b60405180910390a460405181907f788dbc1b7152732178210e7f4d9d010ef016f9eafbe66786bd7169f56e0c353a90600090a29695505050505050565b60335473ffffffffffffffffffffffffffffffffffffffff163314610545576040517f08c379a000000000000000000000000000000000000000000000000000000000815260206004820181905260248201527f4f776e61626c653a2063616c6c6572206973206e6f7420746865206f776e65726044820152606401610442565b606554600214610ebb576040517f08c379a000000000000000000000000000000000000000000000000000000000815260206004820152600760248201527f21706175736564000000000000000000000000000000000000000000000000006044820152606401610442565b6001606555565b600054610100900460ff16610ebb576040517f08c379a000000000000000000000000000000000000000000000000000000000815260206004820152602b60248201527f496e697469616c697a61626c653a20636f6e7472616374206973206e6f74206960448201527f6e697469616c697a696e670000000000000000000000000000000000000000006064820152608401610442565b600054610100900460ff16610ff0576040517f08c379a000000000000000000000000000000000000000000000000000000000815260206004820152602b60248201527f496e697469616c697a61626c653a20636f6e7472616374206973206e6f74206960448201527f6e697469616c697a696e670000000000000000000000000000000000000000006064820152608401610442565b61054561140f565b73ffffffffffffffffffffffffffffffffffffffff81163b611076576040517f08c379a000000000000000000000000000000000000000000000000000000000815260206004820152600960248201527f21636f6e747261637400000000000000000000000000000000000000000000006044820152606401610442565b609780547fffffffffffffffffffffffff00000000000000000000000000000000000000001673ffffffffffffffffffffffffffffffffffffffff83169081179091556040517fa76ad0adbf45318f8633aa0210f711273d50fbb6fef76ed95bbae97082c75daa90600090a250565b6033805473ffffffffffffffffffffffffffffffffffffffff8381167fffffffffffffffffffffffff0000000000000000000000000000000000000000831681179093556040519116919082907f8be0079c531659141344cd1fd0a4f28419497f9722a3daafe3b4186f6b6457e090600090a35050565b600061116b6001828486611db2565b61117491611ddc565b60f81c90505b92915050565b6000611190602d60298486611db2565b61119991611e22565b60e01c9392505050565b805160209091012090565b60006111c06111bd84846114af565b90565b9392505050565b6000611190600960058486611db2565b60006111e7602960098486611db2565b6111c091611e68565b36600061120083604d8187611db2565b915091505b9250929050565b606554600203611278576040517f08c379a000000000000000000000000000000000000000000000000000000000815260206004820152600660248201527f70617573656400000000000000000000000000000000000000000000000000006044820152606401610442565b6002606555565b600061117a8261128d6114bf565b611980565b606088888888888888886040516020016112b3989796959493929190611ea4565b604051602081830303815290604052905098975050505050505050565b60016112de6020600261205a565b6112e89190612066565b826020015410611354576040517f08c379a000000000000000000000000000000000000000000000000000000000815260206004820152601060248201527f6d65726b6c6520747265652066756c6c000000000000000000000000000000006044820152606401610442565b60018260200160008282546113699190612079565b9091555050602082015460005b602081101561140657816001166001036113a5578284826020811061139d5761139d61208c565b015550505050565b8381602081106113b7576113b761208c565b015460408051602081019290925281018490526060016040516020818303038152906040528051906020012092506002826113f291906120bb565b9150806113fe816120f6565b915050611376565b5061052e61212e565b600054610100900460ff166114a6576040517f08c379a000000000000000000000000000000000000000000000000000000000815260206004820152602b60248201527f496e697469616c697a61626c653a20636f6e7472616374206973206e6f74206960448201527f6e697469616c697a696e670000000000000000000000000000000000000000006064820152608401610442565b610545336110e5565b60006111e7604d602d8486611db2565b6114c7611a52565b600081527fad3228b676f7d3cd4284a5443f17f1962b36e491b30a40b2405849e597ba5fb560208201527fb4c11951957c6f8f642c4af61cd6b24640fec6dc7fc607ee8206a99e92410d3060408201527f21ddb9a356815c3fac1026b6dec5df3124afbadb485c9ba5a3e3398a04b7ba8560608201527fe58769b32a1beaf1ea27375a44095a0d1fb664ce2dd358e7fcbfb78c26a1934460808201527f0eb01ebfc9ed27500cd4dfc979272d1f0913cc9f66540d7e8005811109e1cf2d60a08201527f887c22bd8750d34016ac3c66b5ff102dacdd73f6b014e710b51e8022af9a196860c08201527fffd70157e48063fc33c97a050f7f640233bf646cc98d9524c6b92bcf3ab56f8360e08201527f9867cc5f7f196b93bae1e27e6320742445d290f2263827498b54fec539f756af6101008201527fcefad4e508c098b9a7e1d8feb19955fb02ba9675585078710969d3440f5054e06101208201527ff9dc3e7fe016e050eff260334f18a5d4fe391d82092319f5964f2e2eb7c1c3a56101408201527ff8b13a49e282f609c317a833fb8d976d11517c571d1221a265d25af778ecf8926101608201527f3490c6ceeb450aecdc82e28293031d10c7d73bf85e57bf041a97360aa2c5d99c6101808201527fc1df82d9c4b87413eae2ef048f94b4d3554cea73d92b0f7af96e0271c691e2bb6101a08201527f5c67add7c6caf302256adedf7ab114da0acfe870d449a3a489f781d659e8becc6101c08201527fda7bce9f4e8618b6bd2f4132ce798cdc7a60e7e1460a7299e3c6342a579626d26101e08201527f2733e50f526ec2fa19a22b31e8ed50f23cd1fdf94c9154ed3a7609a2f1ff981f6102008201527fe1d3b5c807b281e4683cc6d6315cf95b9ade8641defcb32372f1c126e398ef7a6102208201527f5a2dce0a8a7f68bb74560f8f71837c2c2ebbcbf7fffb42ae1896f13f7c7479a06102408201527fb46a28b6f55540f89444f63de0378e3d121be09e06cc9ded1c20e65876d36aa06102608201527fc65e9645644786b620e2dd2ad648ddfcbf4a7e5b1a3a4ecfe7f64667a3f0b7e26102808201527ff4418588ed35a2458cffeb39b93d26f18d2ab13bdce6aee58e7b99359ec2dfd96102a08201527f5a9c16dc00d6ef18b7933a6f8dc65ccb55667138776f7dea101070dc8796e3776102c08201527f4df84f40ae0c8229d0d6069e5c8f39a7c299677a09d367fc7b05e3bc380ee6526102e08201527fcdc72595f74c7b1043d0e1ffbab734648c838dfb0527d971b602bc216c9619ef6103008201527f0abf5ac974a1ed57f4050aa510dd9c74f508277b39d7973bb2dfccc5eeb0618d6103208201527fb8cd74046ff337f0a7bf2c8e03e10f642c1886798d71806ab1e888d9e5ee87d06103408201527f838c5655cb21c6cb83313b5a631175dff4963772cce9108188b34ac87c81c41e6103608201527f662ee4dd2dd7b2bc707961b1e646c4047669dcb6584f0d8d770daf5d7e7deb2e6103808201527f388ab20e2573d171a88108e79d820e98f26c0b84aa8b2f4aa4968dbb818ea3226103a08201527f93237c50ba75ee485f4c22adf2f741400bdf8d6a9cc7df7ecae576221665d7356103c08201527f8448818bb4ae4562849e949e17ac16e0be16688e156b5cf15e098c627c0056a96103e082015290565b6020820154600090815b6020811015611a4a57600182821c1660008683602081106119ad576119ad61208c565b01549050816001036119ea576040805160208101839052908101869052606001604051602081830303815290604052805190602001209450611a35565b848684602081106119fd576119fd61208c565b6020020151604051602001611a1c929190918252602082015260400190565b6040516020818303038152906040528051906020012094505b50508080611a42906120f6565b91505061198a565b505092915050565b6040518061040001604052806020906020820280368337509192915050565b73ffffffffffffffffffffffffffffffffffffffff81168114610bfe57600080fd5b60008060408385031215611aa657600080fd5b8235611ab181611a71565b91506020830135611ac181611a71565b809150509250929050565b60008083601f840112611ade57600080fd5b50813567ffffffffffffffff811115611af657600080fd5b60208301915083602082850101111561120557600080fd5b60008060008060408587031215611b2457600080fd5b843567ffffffffffffffff80821115611b3c57600080fd5b611b4888838901611acc565b90965094506020870135915080821115611b6157600080fd5b50611b6e87828801611acc565b95989497509550505050565b600060208284031215611b8c57600080fd5b5035919050565b600060208284031215611ba557600080fd5b81356111c081611a71565b60008060008060608587031215611bc657600080fd5b843563ffffffff81168114611bda57600080fd5b935060208501359250604085013567ffffffffffffffff811115611bfd57600080fd5b611b6e87828801611acc565b8183528181602085013750600060208284010152600060207fffffffffffffffffffffffffffffffffffffffffffffffffffffffffffffffe0601f840116840101905092915050565b604081526000611c66604083018688611c09565b8281036020840152611c79818587611c09565b979650505050505050565b600060208284031215611c9657600080fd5b815180151581146111c057600080fd5b63ffffffff85168152836020820152606060408201526000611ccc606083018486611c09565b9695505050505050565b7f4e487b7100000000000000000000000000000000000000000000000000000000600052601160045260246000fd5b63ffffffff828116828216039080821115611d2257611d22611cd6565b5092915050565b600060208284031215611d3b57600080fd5b81516111c081611a71565b600060208083528351808285015260005b81811015611d7357858101830151858201604001528201611d57565b5060006040828601015260407fffffffffffffffffffffffffffffffffffffffffffffffffffffffffffffffe0601f8301168501019250505092915050565b60008085851115611dc257600080fd5b83861115611dcf57600080fd5b5050820193919092039150565b7fff000000000000000000000000000000000000000000000000000000000000008135818116916001851015611a4a5760019490940360031b84901b1690921692915050565b7fffffffff000000000000000000000000000000000000000000000000000000008135818116916004851015611a4a5760049490940360031b84901b1690921692915050565b8035602083101561117a577fffffffffffffffffffffffffffffffffffffffffffffffffffffffffffffffff602084900360031b1b1692915050565b7fff000000000000000000000000000000000000000000000000000000000000008960f81b16815260007fffffffff00000000000000000000000000000000000000000000000000000000808a60e01b166001840152808960e01b166005840152876009840152808760e01b1660298401525084602d8301528284604d8401375060009101604d01908152979650505050505050565b600181815b80851115611f9357817fffffffffffffffffffffffffffffffffffffffffffffffffffffffffffffffff04821115611f7957611f79611cd6565b80851615611f8657918102915b93841c9390800290611f3f565b509250929050565b600082611faa5750600161117a565b81611fb75750600061117a565b8160018114611fcd5760028114611fd757611ff3565b600191505061117a565b60ff841115611fe857611fe8611cd6565b50506001821b61117a565b5060208310610133831016604e8410600b8410161715612016575081810a61117a565b6120208383611f3a565b807fffffffffffffffffffffffffffffffffffffffffffffffffffffffffffffffff0482111561205257612052611cd6565b029392505050565b60006111c08383611f9b565b8181038181111561117a5761117a611cd6565b8082018082111561117a5761117a611cd6565b7f4e487b7100000000000000000000000000000000000000000000000000000000600052603260045260246000fd5b6000826120f1577f4e487b7100000000000000000000000000000000000000000000000000000000600052601260045260246000fd5b500490565b60007fffffffffffffffffffffffffffffffffffffffffffffffffffffffffffffffff820361212757612127611cd6565b5060010190565b7f4e487b7100000000000000000000000000000000000000000000000000000000600052600160045260246000fdfea2646970667358221220d6f190bbbc6dd5996396b02e3f879b34f377436d5eb95ba31ba46f98da84871764736f6c63430008110033",
  "linkReferences": {},
  "deployedLinkReferences": {}
}