{
  "_format": "hh-sol-artifact-1",
  "contractName": "TestRecipient",
  "sourceName": "contracts/test/TestRecipient.sol",
  "abi": [
    {
      "anonymous": false,
      "inputs": [
        {
          "indexed": true,
          "internalType": "address",
          "name": "previousOwner",
          "type": "address"
        },
        {
          "indexed": true,
          "internalType": "address",
          "name": "newOwner",
          "type": "address"
        }
      ],
      "name": "OwnershipTransferred",
      "type": "event"
    },
    {
      "anonymous": false,
      "inputs": [
        {
          "indexed": true,
          "internalType": "address",
          "name": "caller",
          "type": "address"
        },
        {
          "indexed": false,
          "internalType": "uint256",
          "name": "amount",
          "type": "uint256"
        },
        {
          "indexed": false,
          "internalType": "string",
          "name": "message",
          "type": "string"
        }
      ],
      "name": "ReceivedCall",
      "type": "event"
    },
    {
      "anonymous": false,
      "inputs": [
        {
          "indexed": true,
          "internalType": "uint32",
          "name": "origin",
          "type": "uint32"
        },
        {
          "indexed": true,
          "internalType": "bytes32",
          "name": "sender",
          "type": "bytes32"
        },
        {
          "indexed": false,
          "internalType": "string",
          "name": "message",
          "type": "string"
        }
      ],
      "name": "ReceivedMessage",
      "type": "event"
    },
    {
      "inputs": [
        {
          "internalType": "uint256",
          "name": "amount",
          "type": "uint256"
        },
        {
          "internalType": "string",
          "name": "message",
          "type": "string"
        }
      ],
      "name": "fooBar",
      "outputs": [],
      "stateMutability": "nonpayable",
      "type": "function"
    },
    {
      "inputs": [
        {
          "internalType": "uint32",
          "name": "_origin",
          "type": "uint32"
        },
        {
          "internalType": "bytes32",
          "name": "_sender",
          "type": "bytes32"
        },
        {
          "internalType": "bytes",
          "name": "_data",
          "type": "bytes"
        }
      ],
      "name": "handle",
      "outputs": [],
      "stateMutability": "nonpayable",
      "type": "function"
    },
    {
      "inputs": [],
      "name": "interchainSecurityModule",
      "outputs": [
        {
          "internalType": "contract IInterchainSecurityModule",
          "name": "",
          "type": "address"
        }
      ],
      "stateMutability": "view",
      "type": "function"
    },
    {
      "inputs": [],
      "name": "lastCallMessage",
      "outputs": [
        {
          "internalType": "string",
          "name": "",
          "type": "string"
        }
      ],
      "stateMutability": "view",
      "type": "function"
    },
    {
      "inputs": [],
      "name": "lastCaller",
      "outputs": [
        {
          "internalType": "address",
          "name": "",
          "type": "address"
        }
      ],
      "stateMutability": "view",
      "type": "function"
    },
    {
      "inputs": [],
      "name": "lastData",
      "outputs": [
        {
          "internalType": "bytes",
          "name": "",
          "type": "bytes"
        }
      ],
      "stateMutability": "view",
      "type": "function"
    },
    {
      "inputs": [],
      "name": "lastSender",
      "outputs": [
        {
          "internalType": "bytes32",
          "name": "",
          "type": "bytes32"
        }
      ],
      "stateMutability": "view",
      "type": "function"
    },
    {
      "inputs": [],
      "name": "owner",
      "outputs": [
        {
          "internalType": "address",
          "name": "",
          "type": "address"
        }
      ],
      "stateMutability": "view",
      "type": "function"
    },
    {
      "inputs": [],
      "name": "renounceOwnership",
      "outputs": [],
      "stateMutability": "nonpayable",
      "type": "function"
    },
    {
      "inputs": [
        {
          "internalType": "address",
          "name": "_ism",
          "type": "address"
        }
      ],
      "name": "setInterchainSecurityModule",
      "outputs": [],
      "stateMutability": "nonpayable",
      "type": "function"
    },
    {
      "inputs": [
        {
          "internalType": "address",
          "name": "newOwner",
          "type": "address"
        }
      ],
      "name": "transferOwnership",
      "outputs": [],
      "stateMutability": "nonpayable",
      "type": "function"
    }
  ],
  "bytecode": "0x608060405234801561001057600080fd5b5061001a3361001f565b61006f565b600080546001600160a01b038381166001600160a01b0319831681178455604051919092169283917f8be0079c531659141344cd1fd0a4f28419497f9722a3daafe3b4186f6b6457e09190a35050565b6109d38061007e6000396000f3fe608060405234801561001057600080fd5b50600436106100c85760003560e01c8063715018a611610081578063de523cf31161005b578063de523cf31461019d578063f07c1f47146101bd578063f2fde38b146101d057600080fd5b8063715018a61461016f5780638da5cb5b14610177578063a4982fde1461019557600080fd5b80632113522a116100b25780632113522a14610100578063256fec881461014557806356d5d4751461015c57600080fd5b80626e75ec146100cd5780630e72cc06146100eb575b600080fd5b6100d56101e3565b6040516100e291906105e0565b60405180910390f35b6100fe6100f93660046105fa565b610271565b005b6004546101209073ffffffffffffffffffffffffffffffffffffffff1681565b60405173ffffffffffffffffffffffffffffffffffffffff90911681526020016100e2565b61014e60025481565b6040519081526020016100e2565b6100fe61016a366004610679565b6102c0565b6100fe61031a565b60005473ffffffffffffffffffffffffffffffffffffffff16610120565b6100d561032e565b6001546101209073ffffffffffffffffffffffffffffffffffffffff1681565b6100fe6101cb3660046106de565b61033b565b6100fe6101de3660046105fa565b6103ca565b600380546101f09061072a565b80601f016020809104026020016040519081016040528092919081815260200182805461021c9061072a565b80156102695780601f1061023e57610100808354040283529160200191610269565b820191906000526020600020905b81548152906001019060200180831161024c57829003601f168201915b505050505081565b610279610486565b600180547fffffffffffffffffffffffff00000000000000000000000000000000000000001673ffffffffffffffffffffffffffffffffffffffff92909216919091179055565b828463ffffffff167fba67744c899113a84f615d51af5d82f5fedcf26c9a474d9363c3ad9b0bd501ac84846040516102f99291906107c6565b60405180910390a360028390556003610313828483610860565b5050505050565b610322610486565b61032c6000610507565b565b600580546101f09061072a565b3373ffffffffffffffffffffffffffffffffffffffff167f97d8367a1f39eb9e97f262fafbb05925c0bcfe120aaad7b9737cae34f749c2068484846040516103859392919061097a565b60405180910390a2600480547fffffffffffffffffffffffff0000000000000000000000000000000000000000163317905560056103c4828483610860565b50505050565b6103d2610486565b73ffffffffffffffffffffffffffffffffffffffff811661047a576040517f08c379a000000000000000000000000000000000000000000000000000000000815260206004820152602660248201527f4f776e61626c653a206e6577206f776e657220697320746865207a65726f206160448201527f646472657373000000000000000000000000000000000000000000000000000060648201526084015b60405180910390fd5b61048381610507565b50565b60005473ffffffffffffffffffffffffffffffffffffffff16331461032c576040517f08c379a000000000000000000000000000000000000000000000000000000000815260206004820181905260248201527f4f776e61626c653a2063616c6c6572206973206e6f7420746865206f776e65726044820152606401610471565b6000805473ffffffffffffffffffffffffffffffffffffffff8381167fffffffffffffffffffffffff0000000000000000000000000000000000000000831681178455604051919092169283917f8be0079c531659141344cd1fd0a4f28419497f9722a3daafe3b4186f6b6457e09190a35050565b6000815180845260005b818110156105a257602081850181015186830182015201610586565b5060006020828601015260207fffffffffffffffffffffffffffffffffffffffffffffffffffffffffffffffe0601f83011685010191505092915050565b6020815260006105f3602083018461057c565b9392505050565b60006020828403121561060c57600080fd5b813573ffffffffffffffffffffffffffffffffffffffff811681146105f357600080fd5b60008083601f84011261064257600080fd5b50813567ffffffffffffffff81111561065a57600080fd5b60208301915083602082850101111561067257600080fd5b9250929050565b6000806000806060858703121561068f57600080fd5b843563ffffffff811681146106a357600080fd5b935060208501359250604085013567ffffffffffffffff8111156106c657600080fd5b6106d287828801610630565b95989497509550505050565b6000806000604084860312156106f357600080fd5b83359250602084013567ffffffffffffffff81111561071157600080fd5b61071d86828701610630565b9497909650939450505050565b600181811c9082168061073e57607f821691505b602082108103610777577f4e487b7100000000000000000000000000000000000000000000000000000000600052602260045260246000fd5b50919050565b8183528181602085013750600060208284010152600060207fffffffffffffffffffffffffffffffffffffffffffffffffffffffffffffffe0601f840116840101905092915050565b6020815260006107da60208301848661077d565b949350505050565b7f4e487b7100000000000000000000000000000000000000000000000000000000600052604160045260246000fd5b601f82111561085b57600081815260208120601f850160051c810160208610156108385750805b601f850160051c820191505b8181101561085757828155600101610844565b5050505b505050565b67ffffffffffffffff831115610878576108786107e2565b61088c83610886835461072a565b83610811565b6000601f8411600181146108de57600085156108a85750838201355b7fffffffffffffffffffffffffffffffffffffffffffffffffffffffffffffffff600387901b1c1916600186901b178355610313565b6000838152602090207fffffffffffffffffffffffffffffffffffffffffffffffffffffffffffffffe0861690835b8281101561092d578685013582556020948501946001909201910161090d565b5086821015610968577fffffffffffffffffffffffffffffffffffffffffffffffffffffffffffffffff60f88860031b161c19848701351681555b505060018560011b0183555050505050565b83815260406020820152600061099460408301848661077d565b9594505050505056fea26469706673582212205d3d83431969180ff80771b45e9b5540042b30ba13ab0219d5790e9d60e8bfec64736f6c63430008110033",
  "linkReferences": {},
  "deployedLinkReferences": {}
}