{
  "_format": "hh-sol-artifact-1",
  "contractName": "TestMultisigIsm",
  "sourceName": "contracts/test/TestMultisigIsm.sol",
  "abi": [
    {
      "inputs": [],
      "stateMutability": "nonpayable",
      "type": "constructor"
    },
    {
      "inputs": [],
      "name": "accept",
      "outputs": [
        {
          "internalType": "bool",
          "name": "",
          "type": "bool"
        }
      ],
      "stateMutability": "view",
      "type": "function"
    },
    {
      "inputs": [],
      "name": "moduleType",
      "outputs": [
        {
          "internalType": "uint8",
          "name": "",
          "type": "uint8"
        }
      ],
      "stateMutability": "view",
      "type": "function"
    },
    {
      "inputs": [
        {
          "internalType": "bool",
          "name": "_val",
          "type": "bool"
        }
      ],
      "name": "setAccept",
      "outputs": [],
      "stateMutability": "nonpayable",
      "type": "function"
    },
    {
      "inputs": [
        {
          "internalType": "bytes",
          "name": "",
          "type": "bytes"
        }
      ],
      "name": "validatorsAndThreshold",
      "outputs": [
        {
          "internalType": "address[]",
          "name": "",
          "type": "address[]"
        },
        {
          "internalType": "uint8",
          "name": "",
          "type": "uint8"
        }
      ],
      "stateMutability": "pure",
      "type": "function"
    },
    {
      "inputs": [
        {
          "internalType": "bytes",
          "name": "",
          "type": "bytes"
        },
        {
          "internalType": "bytes",
          "name": "",
          "type": "bytes"
        }
      ],
      "name": "verify",
      "outputs": [
        {
          "internalType": "bool",
          "name": "",
          "type": "bool"
        }
      ],
      "stateMutability": "view",
      "type": "function"
    }
  ],
  "bytecode": "0x608060405234801561001057600080fd5b506000805460ff191660011790556103778061002d6000396000f3fe608060405234801561001057600080fd5b50600436106100675760003560e01c80634fc3aa7c116100505780634fc3aa7c146100af5780636465e69f146100f0578063f7e83aee1461010a57600080fd5b80632852b71c1461006c5780632e0ed2341461008e575b600080fd5b6000546100799060ff1681565b60405190151581526020015b60405180910390f35b6100a161009c3660046101d7565b610126565b604051610085929190610219565b6100ee6100bd36600461027d565b600080547fffffffffffffffffffffffffffffffffffffffffffffffffffffffffffffff0016911515919091179055565b005b6100f8600481565b60405160ff9091168152602001610085565b6100796101183660046102a6565b60005460ff16949350505050565b60408051600180825281830190925260609160009182916020808301908036833701905050905060008160008151811061016257610162610312565b73ffffffffffffffffffffffffffffffffffffffff909216602092830291909101909101529150600190505b9250929050565b60008083601f8401126101a757600080fd5b50813567ffffffffffffffff8111156101bf57600080fd5b60208301915083602082850101111561018e57600080fd5b600080602083850312156101ea57600080fd5b823567ffffffffffffffff81111561020157600080fd5b61020d85828601610195565b90969095509350505050565b604080825283519082018190526000906020906060840190828701845b8281101561026857815173ffffffffffffffffffffffffffffffffffffffff1684529284019290840190600101610236565b50505060ff9490941692019190915250919050565b60006020828403121561028f57600080fd5b8135801515811461029f57600080fd5b9392505050565b600080600080604085870312156102bc57600080fd5b843567ffffffffffffffff808211156102d457600080fd5b6102e088838901610195565b909650945060208701359150808211156102f957600080fd5b5061030687828801610195565b95989497509550505050565b7f4e487b7100000000000000000000000000000000000000000000000000000000600052603260045260246000fdfea2646970667358221220d258f83fdc53fc8d3a60e50e37e6d4720ae9f373c977e98fc428991b63ce34c264736f6c63430008110033",
  "linkReferences": {},
  "deployedLinkReferences": {}
}